:020000040800F2
:10000000B83E012061020008AF0800085908000846
:10001000AB080008470300084D1700080000000067
:100020000000000000000000000000009D0100082A
:10003000A906000800000000ED010008DD0C000822
:100040007B0200087B0200087B0200087B0200089C
:100050007B0200087B0200087B0200087B0200088C
:100060007B0200087B0200087B0200087B0200087C
:100070007B0200087B0200087B020008E504000800
:100080007B0200087B0200087B0200087B0200085C
:100090007B0200087B0200087B0200087B0200084C
:1000A0007B0200087B0200087B0200087B0200083C
:1000B0007B0200087B0200087B0200087B0200082C
:1000C0007B0200087B0200087B0200087B0200081C
:1000D0007B020008650D00087B020008810D000806
:1000E0007B0200087B0200087B0200087B020008FC
:1000F0007B0200087B0200087B0200087B020008EC
:100100007B0200087B0200087B0200087B020008DB
:100110007B0200087B0200087B0200087B020008CB
:100120007B0200087B0200087B0200087B020008BB
:100130007B0200087B0200087B0200087B020008AB
:100140007B0200087B0200087B0200087B0200089B
:100150007B0200087B0200087B0200087B0200088B
:100160007B0200087B0200087B0200087B0200087B
:100170007B0200087B0200087B0200087B0200086B
:100180007B0200087B020008DFF80CD000F09EF82C
:1001900000480047111A0008B83E0120284B196892
:1001A0000868B0E8F04F80F30988BFF36F8F4FF015
:1001B000000080F3118870470000000005480068C7
:1001C000006880F3088862B6BFF34F8FBFF36F8F6C
:1001D00000DF00BF08ED00E0DFF80C00016841F42B
:1001E00070010160704700BF88ED00E0EFF3098007
:1001F000BFF36F8F124B1A681EF0100F08BF20ED6F
:10020000108A20E9F04F106008B44FF0500080F3DE
:10021000118802F08FFB4FF0000080F3118808BCBA
:1002200019680868B0E8F04F1EF0100F08BFB0EC76
:10023000108A80F30988BFF36F8F704700BF0000FA
:1002400014000020EFF311804FF0500181F311886A
:10025000704780F311887047EFF305807047000006
:100260000648804706480047FEE7FEE7FEE7FEE750
:10027000FEE7FEE7FEE7FEE7FEE7FEE7FD0C00080F
:100280008901000840EA01039B0703D009E008C97F
:10029000121F08C0042AFAD203E011F8013B00F84B
:1002A000013B521EF9D27047D2B201E000F8012B97
:1002B000491EFBD270470022F6E710B513460A46E6
:1002C00004461946FFF7F0FF204610BD064C074DC7
:1002D00006E0E06840F0010394E807009847103416
:1002E000AC42F6D3FFF754FF4434000864340008EE
:1002F00070B58C1810F8015B15F0070301D110F8E8
:10030000013B2A1106D110F8012B03E010F8016B14
:1003100001F8016B5B1EF9D12B0705D40023521E97
:100320000DD401F8013BFAE710F8013BCB1A921CFF
:1003300003E013F8015B01F8015B521EF9D5A142FD
:10034000D8D3002070BD00BFFEE770B506460C464E
:1003500004F08000802808D104F07F0000EB8001C9
:1003600006F58E7000EBC10507E004F07F0000EB9E
:10037000800106F55D7000EBC10504F07F00287078
:1003800004F08000C00968702946304601F056F834
:10039000002070BD2DE9F04106460D4690461F46EF
:1003A00005F08000802808D105F07F0000EB800177
:1003B00006F58E7000EBC10407E005F07F0000EB4E
:1003C000800106F55D7000EBC10405F07F00207030
:1003D00005F08000C0096070C4F80880E77060789C
:1003E00008B12078E080022F01D100202071214641
:1003F000304600F0CBFF0020BDE8F0812DE9F04150
:1004000005460E461746984606F07F0000EB800131
:1004100005F55D7000EBC104E760C4F814800020AE
:10042000A061607006F07F002070E878012800D19C
:100430002761207820B92146284600F0CBFE03E052
:100440002146284601F067F80020BDE8F08170B52C
:1004500006460C4604F08000802808D104F07F0096
:1004600000EB800106F58E7000EBC10505E004EBA2
:10047000840106F55D7000EBC1050120A87004F051
:100480007F002870C4F3C01068702946304601F020
:1004900010F8002070BD2DE9F04107460D461646C4
:1004A000984605F07F0000EB800107F58E7000EBA9
:1004B000C1040120607005F07F002070E6602661B5
:1004C0000020A061C4F81480207820B92146384665
:1004D00000F080FE03E02146384601F01CF80020C1
:1004E000BDE8F08110B52C492C4800F08FF80028A9
:1004F00051D02B480068002840D000BF274800F0AA
:100500007AF80028FAD12449244800F04FF8254809
:1005100000682549886022480068B0F5803F02D213
:100520001F48006801E04FF6FF701F4908611B4833
:1005300000F08EF80121194800F052F819480068BF
:1005400017490968B1F5803F02D21549096801E0F1
:100550004FF6FF7100EB4100124908601048006837
:10056000B0F5803F02D20E48006801E04FF6FF7000
:100570000B490968081A0A4908600CE0002107487D
:1005800000F02EF80449054800F010F80021054855
:10059000006800F08AF810BD200000207060024062
:1005A000E4000020E8000020402F01200246094B13
:1005B0009A4201D2084801E00648103801F0005381
:1005C0001BB1064B0B40C36002E0044B0B40836041
:1005D0007047000010640240006002407D0F7D0FF4
:1005E00021B1026842F00102026003E0026822F0D9
:1005F000010202607047014600200A6802F0010211
:100600000AB1012000E000207047000030B5034629
:100610000A46002000240B4DAB4201D20A4901E0FA
:100620000849103902F000550DB14C6800E00C6823
:10063000064D2C4004EA02050DB1012000E0002027
:1006400030BD000010640240006002407D0F7D0F4D
:1006500010B500220268134B1A40CC680B68234384
:100660004C6923438C692343CC6923430C6A23439D
:100670004C6A23438C6A23434C6B23438C6B234388
:100680001A430260426922F00702D1E90B34234386
:100690001A4342610B6943604B6883608B68C36097
:1006A00010BD00003F801CF070477047F0B50A464F
:1006B00000210023002400BF3DE0012505FA01F3DD
:1006C000156805EA03049C4234D105684F000326EF
:1006D000BE40B543056015794E00B5400668354308
:1006E00005601579012D02D01579022D16D1856886
:1006F0004F000326BE40B543856055794E00B54096
:10070000866835438560456801268E40B54345605F
:10071000456896798E40B6B235434560C5684F004E
:100720000326BE40B543C560D5794E00B540C668C6
:100730003543C560491C1029BFD3F0BDF0B5002377
:1007400000244D07ED0E02FA05F3CE1000F120054E
:1007500055F826504E07F70E0F26BE40B543CF1072
:1007600000F1200646F82750CE1000F1200555F87C
:10077000265045EA0304CE1000F1200545F8264036
:10078000F0BD000070B506462E480078012856D00E
:100790002D480068B0F5006F02D100202A4908609A
:1007A0002948006829490968884203D10020254961
:1007B000087070BD2448006824490968884206D939
:1007C00021480068C0F500602149086006E01F4824
:1007D00000681D490968401A1D4908601C480068E6
:1007E000B0F5007F11D91848008884B24FF4007525
:1007F0001548006800F50070134908601448006847
:10080000A0F50070124908600FE00F48008884B21C
:100810000F48008885B20C4800680D4909680844F3
:100820000949086000200A4908600120054908704C
:10083000084802192B4681213046FFF72CFE00BFE5
:10084000B7E7000038010020300100202C01002013
:1008500034010020B732012000BFFEE700BF0020B6
:1008600000F08EF9012000F08BF9022000F088F9E9
:10087000032000F085F917E0002000F0A7F96420BC
:1008800001F024FF012000F0A1F9642001F01EFF17
:10089000022000F09BF9642001F018FF032000F013
:1008A00095F9642001F012FFE6E700BFFEE770470C
:1008B00070B5002100230F22C4781CB3174C2468A4
:1008C00004F4E064C4F5E064C4F30721C1F1040456
:1008D000E3B20A4144789C40E1B284781440214359
:1008E0000C07210E0E4C05786155047804F01F05A5
:1008F0000124AC4005786D11AD0005F1E025C5F887
:10090000004109E0047804F01F050124AC40054DC6
:100910000678761145F8264070BD00000CED00E029
:1009200000E400E080E100E029B1064A12680243D9
:10093000044B1A6004E0034A12688243014B1A60B8
:10094000704700003038024029B1064A126802435D
:10095000044B1A6004E0034A12688243014B1A6098
:10096000704700003438024029B1064A1268024339
:10097000044B1A6004E0034A12688243014B1A6078
:100980007047000044380240F0B5002100220024E6
:10099000022500260223324F3F6807F00C0121B1E7
:1009A000042905D0082937D105E02E4F076036E02D
:1009B0002D4F076033E02A4F3F1F3F68C7F3805633
:1009C000274F3F1F3F6807F03F036EB1264FB7FB2D
:1009D000F3F7DFF88CC0ACF1040CDCF800C0CCF30A
:1009E000881C07FB0CF40CE01E4FB7FBF3F7DFF895
:1009F00070C0ACF1040CDCF800C0CCF3881C07FB21
:100A00000CF4174F3F1F3F68C7F301477F1C7D0061
:100A1000B4FBF5F7076002E0124F076000BF00BFAC
:100A20000F4F3F6807F0F0010909104F7A5C076823
:100A3000D74047600A4F3F6807F4E051890A0B4FDF
:100A40007A5C4768D7408760054F3F6807F460418C
:100A5000490B064F7A5C4768D740C760F0BD00007D
:100A6000083802400024F40040787D01F90000209D
:100A70003EB504460D4625208DF8000000208DF877
:100A800001008DF8020001208DF803006846FFF791
:100A90000FFF2E4951F824102D4A52F8242041EA24
:100AA00002000121FFF740FF2A4951F824000121EB
:100AB000FFF75AFF284B13F81420284B33F8141073
:100AC000274B53F82400FFF739FE264B13F8142068
:100AD000254B33F81410254B53F82400FFF72EFE56
:100AE00000208DF80A0001208DF80B0002208DF8FF
:100AF00008001F4830F81400019002208DF809000A
:100B0000174951F8240001A9FFF7D0FD02208DF804
:100B10000800184830F814000190144951F82400D6
:100B200001A9FFF7C3FD144951F82400294600F03C
:100B3000A5F9114951F82400012100F037F90122EB
:100B400040F225510D4800F074F93EBD30340008E4
:100B5000343400082C340008403400083C340008C9
:100B6000D4000020423400083E340008D8000020A1
:100B7000383400083A340008D0000020001001404A
:100B80001CB504460E4951F824000121FFF7CCFEA4
:100B90000C4830F81400009001208DF8040000206B
:100BA0008DF8060001208DF8070002208DF8050061
:100BB000054951F824006946FFF778FD1CBD000087
:100BC000F0330008E8330008B4000020064951F86B
:100BD00020104969054A32F810205140024A52F863
:100BE0002020516170470000B4000020E833000865
:100BF0000CB50020019000903448006840F480302B
:100C00003249086000BF3148006800F400300090AD
:100C10000198401C0190009818B90198B0F5A04FB8
:100C2000F1D12A48006800F4003010B10120009092
:100C300001E0002000900098012846D12348403070
:100C4000006840F080502149403108602048006829
:100C500040F440401E4908601C48083000681B49A9
:100C6000083108600846006840F400400860084603
:100C7000006840F4A05008601648091F0860081F6B
:100C8000006840F08070091F086000BF0F480068CE
:100C900000F000700028F9D040F205700E4908609D
:100CA0000A480830006820F003000849083108604D
:100CB0000846006840F00200086000BF03480830A2
:100CC000006800F00C000828F8D10CBD0038024084
:100CD0000070004019544007003C024010B5FFF777
:100CE000B1FA02F0C9F918B14FF08050024908601A
:100CF0000020FFF7AEFA10BD04ED00E010B5154876
:100D0000006840F47000134908601348006840F020
:100D100001001149086000200F49083108600E48A1
:100D200000680E4908400C4908600D48091D08601C
:100D3000081F006820F48020091F08600020064971
:100D40000C310860FFF754FF4FF000600149803913
:100D5000086010BD88ED00E000380240FFFFF6FE9D
:100D60001030002410B5054800F0F2F800F07F04C0
:100D70002146024800F0F1F810BD000000100140CB
:100D800010B540F22551084800F029F818B10021AB
:100D9000084600F0CDFD0821034800F013F810B11B
:100DA000014800F0D5F810BD0010014021B1828942
:100DB00042F40052828104E082894DF6FF731A40AA
:100DC0008281704702460020B1F5007F00D100BF4C
:100DD00013880B400BB1012000E00020704770B574
:100DE0000246002400230025002040F66A16B14286
:100DF00000D100BFC1F3421501F01F03012606FA1E
:100E000003F3012D02D19689334006E0022D02D171
:100E1000168A334001E0968A33400C12012606FA06
:100E200004F41688344013B10CB1012000E0002016
:100E300070BDF0B50346002400260025002040F6D2
:100E40006A17B94200D100BF1846C1F3421401F03D
:100E50001F06012707FA06F5012C01D10C3004E02A
:100E6000022C01D1103000E014301AB107682F4372
:100E7000076002E00768AF430760F0BD2DE9FF4758
:100E800005460E460024A14600BFA046B08900B129
:100E900000BF2C8A24F44054F08804432C82AC898F
:100EA00041F20C608443B08831890843718908435A
:100EB0000443AC81AC8A24F44074B0890443AC820E
:100EC0006846FFF761FD2048854202D01F488542F1
:100ED00002D1DDF80C9001E0DDF80890A88900F45B
:100EE000004040B109EBC90000EB0910316849002E
:100EF000B0FBF1F707E009EBC90000EB091031681E
:100F00008900B0FBF1F76420B7FBF0F00401200981
:100F1000642101FB1078A88900F4004040B1322020
:100F200000EBC800B0FBF1F000F00700044308E05C
:100F3000322000EB08106421B0FBF1F000F00F004C
:100F400004432C81BDE8FF870010014000140140DC
:100F500001468888C0F308007047C1F30802828008
:100F6000704770B504460D4680212046FFF76FFAA2
:100F700000212046FFF76BFA204600F0D6F970BD3D
:100F80002DE9F04104460E4615460027C4F8945357
:100F9000C4F89053032140F2111001552B463246FC
:100FA00000212046FFF72AFA3846BDE8F0812DE9F6
:100FB000F04104460E4615460027C4F83C51C4F8DB
:100FC0003851022140F2111001552B4632460021C2
:100FD0002046FFF760FA3846BDE8F0810146002060
:100FE00002E0421CD0B2491C0A78002AF9D17047AD
:100FF0002DE9F04104460D4617460026FCB1204677
:10100000FFF7ECFF022101EB400038803A783046D0
:10101000711CCEB22A5403223046711CCEB22A541F
:101020000AE014F8012B3046711CCEB22A5400227B
:101030003046711CCEB22A5420780028F1D1BDE888
:10104000F081000070B505460C462DB922460649D0
:1010500006A0FFF7CDFF04E02246034903A0FFF7F7
:10106000C7FF014870BD0000B82F01205643502033
:10107000436F6E66696700000246122008800148CF
:10108000704700009400002070B505460C462DB94D
:101090002246064906A0FFF7ABFF04E022460349BB
:1010A00003A0FFF7A5FF014870BD0000B82F012085
:1010B00056435020496E7465726661636500000096
:1010C000024604200880014870470000B00000205C
:1010D00070B505460C462246024903A0FFF788FF7B
:1010E000004870BDB82F012053544D6963726F657D
:1010F0006C656374726F6E696373000070B505464A
:101100000C462DB92246064906A0FFF771FF04E000
:10111000224603490CA0FFF76BFF014870BD000099
:10112000B82F012053544D333220566972747561C3
:101130006C20436F6D506F727420696E204853208D
:101140006D6F64650000000053544D3332205669C2
:10115000727475616C20436F6D506F727420696E8C
:10116000204653204D6F64650000000070B50546B1
:101170000C462DB92246064906A0FFF739FF04E0C8
:101180002246034907A0FFF733FF014870BD000066
:10119000B82F0120303030303030303030353042F0
:1011A00000000000303030303030303030353043E7
:1011B00000000000024643200880014870470000FC
:1011C0007401002002464320088001487047000057
:1011D000B7010020FEB5024600200024002502953C
:1011E00000954D78012D52D193691D6802951D69B6
:1011F00000954D6955B9009D25F07F050095009D2E
:1012000025F4C01505F50025009516E08E684D699A
:10121000B54207D98D684D610E7A009D66F30605CB
:10122000009504E00E7D009D66F306050095009D87
:1012300025F4C01505F500250095009D1D61D578A4
:10124000012D06D10F7802F1180555F827500E69C7
:101250006E61029D25F0806505F180650295029D15
:1012600025F0004505F100450295029D1D60D578E9
:10127000002D59D14D69002D56D00E780125B5406D
:101280002C4315696D6B2543166975634CE00E7828
:1012900002F1540555F826502D6802950E7802F19A
:1012A000540555F826502D6900954D695DB90E7AA3
:1012B000009D66F306050095009D25F4C01505F513
:1012C000002500950CE08D684D610E7A009D66F357
:1012D00006050095009D25F4C01505F5002500952F
:1012E0000F7802F1540555F82750009E2E61D578ED
:1012F000012D06D10F7802F1540555F827500E69DB
:101300006E61029D25F0806505F180650295029D64
:1013100025F0004505F1004502950F7802F15405CE
:1013200055F82750029E2E60FEBD0EB5002101919A
:10133000019921F04041A1F180410191019921F4ED
:10134000C01101F500210191019921F07F011831AF
:101350000191019A416D0A61C178012915D10021DD
:10136000009100F2CC51426D5161416D09680091CC
:10137000009921F0004101F1004100914FF08021DE
:101380000091009A416D0A6000BF0EBD3CB5024657
:1013900000200024019400944C78012C0CD10D788D
:1013A00002F1180454F825300D780124AC40009D5A
:1013B00064F30F0500950BE00D7802F1540454F826
:1013C00025300D780124AC40009D64F31F45009545
:1013D0001C680194019CC4F3C034E4B90D89019CDC
:1013E00065F30A040194CD78019C65F3934401945C
:1013F0008D79019C65F399540194019C24F08054EB
:1014000004F180540194019C24F4004404F5004448
:101410000194019C1C600C78012C08D1D47A34B959
:101420001469E46B009D2C431569EC6305E01469B5
:10143000E469009D2C431569EC613CBD3CB5024656
:1014400000200024019400944C78012C0CD10D78DC
:1014500002F1180454F825300D780124AC40009DA9
:1014600064F30F0500950BE00D7802F1540454F875
:1014700025300D780124AC40009D64F31F45009594
:10148000019C24F400440194019C1C600C78012C04
:1014900008D1D47A34B91469E46B009DAC43156962
:1014A000EC6305E01469E469009DAC431569EC61E7
:1014B0003CBD38B503460A46002000240094547809
:1014C000012C18D1157803F1180454F825100C6874
:1014D0000094009CE40F2CB1009C24F0804404F1A3
:1014E00080440094009C24F4001404F5001400943B
:1014F000009C0C600EE0157803F1540454F825109C
:101500000C680094009C24F4001404F5001400946A
:10151000009C0C6038BDFEB505460C460026002731
:10152000002002900190607801287ED1217805F199
:10153000180050F8210000680290217805F1180089
:1015400050F8210000690190606948B901986FF373
:10155000120001900121019861F3DC40019017E035
:101560006169019861F3120001906069401EA168F1
:101570000844B0FBF1F1019861F3DC400190E078A0
:10158000012805D1019820F0C04000F100500190E1
:10159000227805F1180050F8220001990161E878DD
:1015A000012807D1227805F1180050F8220021699E
:1015B00041610DE0E07801280AD0606940B12178EE
:1015C000012000FA01F72869406B38432969486314
:1015D000E078012813D12869806800900098C0F352
:1015E000002030B9029820F0005000F10050029025
:1015F00005E0029820F0805000F18050029002989F
:1016000020F0806000F180600290029820F000409D
:1016100000F100400290227805F1180050F82200F5
:1016200002990160E078012800E008E06CD1A08A0E
:1016300083B222782846E16800F068F864E02178F7
:1016400005F1540050F8210000680290217805F15E
:10165000540050F8210000690190606950B9A168F8
:10166000019861F3120001900121019861F3DC40BF
:10167000019013E0A068401E61690844A168B0FBB6
:10168000F1F1019861F3DC4001900198C0F3C94089
:10169000A1684843019960F312010191227805F194
:1016A000540050F8220001990161E878012806D120
:1016B000227805F1540050F8220021694161E07858
:1016C00001280ED1607930B1029820F0005000F16D
:1016D0000050029005E0029820F0805000F1805008
:1016E0000290029820F0806000F1806002900298E1
:1016F00020F0004000F100400290227805F15400F3
:1017000050F82200029901603046FEBD2DE9F041FB
:1017100004460026E078B0B900270020DD1C4FEA1F
:10172000E57805EB98784FEAA80704F1D00555F85D
:1017300022C000BF04E00D68CCF80050401C091D19
:10174000B842F8D300BF3046BDE8F08100BFFEE7E5
:1017500010B50446BCB94FF4E1303C4908600020A4
:101760008880C8804FF4C0600881002088810C20E8
:1017700048810020FFF77CF9012240F225513448CE
:10178000FFF757FB5FE03348007920B1012806D00E
:1017900002280ED108E000202C49C8800EE04FF44A
:1017A00040502A49C88009E04FF400502749C880BA
:1017B00004E00020FFF7CCFF022010BD00BF254849
:1017C000407920B1012806D002280ED108E000207F
:1017D0001E4908810EE04FF480601C49088109E031
:1017E0004FF4C0601949088104E00020FFF7B0FF02
:1017F0000220E2E700BF17488079072802D00828B6
:1018000010D103E000201149888010E00F480089C2
:1018100018B900200D49888003E04FF480500B492F
:10182000888004E00020FFF793FF0220C5E700BF97
:101830000848006805490860002088810C2048811C
:101840000020FFF715F90020B7E70000302F012036
:10185000001001405C00002070B505460C4616469D
:10186000042D15D007DC7DB1012D0ED0022D0DD039
:10187000032D3FD10BE0202D0BD0212D1FD0222D89
:1018800036D0232D36D134E035E034E033E032E099
:1018900031E02078617840EA0120A17840EA0140F7
:1018A000E17840EA016015490860207908716079A3
:1018B0004871A07988710120FFF74AFF1BE00F48AB
:1018C000007820700D480088000A60700B4800689E
:1018D000000CA07009480068000EE070074800790D
:1018E000207106484079607104488079A07102E057
:1018F00001E000E000BF00BF002070BD5C000020E0
:1019000070B505460E4600240BE0295D0748FFF739
:1019100024FB00BF80210548FFF754FA0028F9D0C6
:10192000641CB442F1D3002070BD000000100140DF
:1019300070B504460D4613488079072809D112482E
:10194000FFF706FB00F07F001049114A1268885427
:101950000AE00C488079082806D10B48FFF7F8FA0E
:101960000A490B4A1268885409480068401C084913
:10197000086008460068B0F5006F01D100200860DB
:10198000002070BD5C00002000100140B732012033
:101990002C0100200020704708B54FF4E1301249B7
:1019A000086000208880C8804FF4C0600881002053
:1019B00088810C2048810020FFF75AF8012240F26C
:1019C00025510A48FFF735FA25208DF80000002040
:1019D0008DF801008DF8020001208DF803006846A3
:1019E000FEF766FF002008BD302F012000100140E7
:1019F00002E008C8121F08C1002AFAD170477047D8
:101A0000002001E001C1121F002AFBD17047000035
:101A100030B589B005A8FEF7B7FF64220698B0FB81
:101A2000F2F1481EB0F1807F00D31BE0481E4FF05A
:101A3000E022506150170F22002807DA13071D0E0D
:101A4000144B00F00F04241F1D5503E013071C0E58
:101A5000114B1C5400BF00204FF0E0229061072082
:101A6000106100BF01214020FEF76EFFFFF746F92D
:101A700000200223CDE90030029003464FF40072AB
:101A800006A10390094801F039FA00F01BFF00207D
:101A900009B030BD18ED00E000E400E0496D706C65
:101AA000656D656E74204C45440000005D080008BB
:101AB00010B504460E48006844600E480068844231
:101AC00007D20B480168091D0B48006800F027FD8C
:101AD0000CE007480168091D0848006800F01FFD78
:101AE00007480068844201D20548046010BD000028
:101AF00014000020280000201C00002018000020F6
:101B00004400002070B505460E464C2000F03EFB18
:101B1000044694B11EB9A80000F038FB00E030463E
:101B20002063206B20B9204600F046FD002404E02D
:101B3000A900A522206BFEF7B7FB204670BD000070
:101B400010B500F013FD1448006808BB134800F0FE
:101B5000D6FC134800F0D3FC104812490860104826
:101B60001149086000220C210A2000F085FF0A4973
:101B700008600846006818B9FEF764FB00BFFEE77E
:101B80000548006820B109A10348006800F06AFD1B
:101B900000F0FCFC10BD000054000020082F0120C4
:101BA0001C2F01204C00002050000020546D725169
:101BB0000000000070B523E000F0B4FE1348006898
:101BC00008B9012000E00020054601F03DFBBDB949
:101BD00000F0CCFC0D48C068C468201D00F078FC03
:101BE0000B480068401E0A4908600A480068401E09
:101BF0000849086000F0CAFC204600F05DF800BF0C
:101C0000044800680028D7D170BD0000E02E0120F4
:101C1000240000202000002070B504460D462068F6
:101C200070B1216CE0680844E0606168E068884257
:101C300001D32068E0602846226CE168FEF722FBB1
:101C400070BD70B504460E461546206C38B9206844
:101C500070BB606800F0B2FD0020606028E07DB9D4
:101C60003146226CA068FEF70DFB216CA068084489
:101C7000A060D4E9011088421AD32068A06017E060
:101C80003146226CE068FEF7FDFA216CE068401AEC
:101C9000E0602168E068884203D2216C6068401AE5
:101CA000E060022D04D1A06B10B1A06B401EA063B8
:101CB000A06B401CA06370BD10B50446206B00F003
:101CC0007BFC204600F078FC10BD00000146084A6D
:101CD000126812680AB9012200E000220A600A684C
:101CE00022B9034A1268D268106800E000207047E9
:101CF0004C00002000BFFFF75DFF0448006801288A
:101D000001D900F0A3FC00F0F7FBF4E7402E01201E
:101D10002DE9F04704460F4615469946DDF8208028
:101D2000002607E0B95D04F134008155B85D00B9C3
:101D300002E0761C0A2EF5D300BF00213D2001559C
:101D4000052D00D30425E562A564201D00F0E4FB09
:101D500004F1180000F0E0FB2461C5F10500A0616A
:101D60006462BDE8F087000010B5002407E004EBD2
:101D700084010F4A02EB810000F0C1FB641C052CBA
:101D8000F5D30C4800F0BBFB0B4800F0B8FB0B4848
:101D900000F0B5FB0A4800F0B2FB0A4800F0AFFBC8
:101DA00004480949086004480849086010BD00005B
:101DB000402E0120A42E0120B82E0120CC2E01207F
:101DC000E02E0120F42E0120180000201C0000202D
:101DD0002DE9F04104460D4616461F464FF0000817
:101DE00065602461B5420CD8F01BA169884202D31A
:101DF0004FF0010811E0211D0948006800F08FFB39
:101E00000BE0BE4204D2BD4202D34FF0010804E011
:101E1000211D0448006800F082FB4046BDE8F081C7
:101E2000500000204C00002070B5054600F09EFBDD
:101E3000A86B08B9012400E0002400F0A7FB2046AD
:101E400070BD70B5054600F091FBA86BE96B884248
:101E500001D1012400E0002400F098FB204670BD71
:101E6000F8B505460F4613480068C068C468201DD1
:101E700000F02EFBE069012817D1A06941192B461B
:101E80003A462046FFF7A4FF01280ED10020034662
:101E90002A4601460090204601F070FA06461EB917
:101EA000FEF7D0F900BFFEE700BF2046616A884711
:101EB000F8BD00004C00002070B586B05DE00398CE
:101EC00000285ADB059C606908B9012000E0002069
:101ED00010B9201D00F0FCFA02A800F09BF805469E
:101EE00003980A2847D2DFE800F00905072B2D42A6
:101EF00006082C2E00BF00BF00BF00BF0498A269D7
:101F0000811803462A462046FFF762FF012816D1B2
:101F10002046616A8847E069012810D100200090BE
:101F20000498A169421800231946204601F026FAB8
:101F300006461EB9FEF786F900BFFEE700BF1BE0AC
:101F400000BF19E000BF0498A061A06908B101209A
:101F500000E0002018B9FEF775F900BFFEE7A069A0
:101F600041192B462A462046FFF732FF04E020465F
:101F700000F022FB00E000BF00BF00231A4603A9C7
:101F80000348006800F0A6FD002898D106B070BD97
:101F900054000020F8B504460E4600F0C3FC684625
:101FA00000F038F805460098A0B946B9AC4206D80A
:101FB00001F04AF929462046FFF752FF0CE0611B69
:101FC0000648006800F064FB01F03EF920B900F01B
:101FD0003DFB01E001F038F9F8BD0000540000209D
:101FE0000A490968096809B9012100E0002121B105
:101FF0004FF0FF31064A116006E004490968C968DC
:10200000C868034A4168116070470000180000204A
:102010004400002070B5044601F022F80546074848
:102020000068854204D200F00BF80120206001E036
:102030000020206001480560284670BD580000203F
:102040002DE9F8432BE020480068C06805681E4869
:102050000068C068C468201D00F03AFA2046616A32
:102060008847E06901281AD1A0694619AE4207D90C
:1020700066602461211D1448006800F050FA0EE0EB
:10208000002003462A4601460090204601F076F9DA
:1020900007461FB9FEF7D6F800BFFEE700BF0A48A3
:1020A0000068006808B9012000E000200028CAD0BC
:1020B0000548D0F8008005480068034908600348D7
:1020C000C0F80080BDE8F8834C00002050000020DC
:1020D00007480068401C08B9012000E0002018B93A
:1020E000FEF7B0F800BFFEE7FEF7ACF800BFFEE772
:1020F0000800002008B500BF6846FFF7E7FD04466A
:1021000020460099FFF746FFFFF7D6FEF4E710B52B
:10211000044600F02BFA11E0606A08B9012000E0E3
:10212000002038B904F1240001F04AF818B100F099
:10213000F7FA00E005E0A06C401EA064A06C002847
:10214000EADC00BF4FF0FF30A06400F01FFA00F09F
:102150000DFA11E0206908B9012000E0002050B913
:1021600004F1100001F02CF808B100F0D9FA606C0D
:10217000401E606400E002E0606C0028EADC00BF02
:102180004FF0FF30606400F001FA10BD70B50446F6
:10219000002504F0070020B104F00700C0F108009A
:1021A000044400F0BFFB1348006820B9124820F037
:1021B000070010490860114800682044104988420F
:1021C00010D20E48006820440C490968884209D999
:1021D000084800680949096845180848006820440B
:1021E0000649086001F030F80DB900F086F928467C
:1021F00070BD000004000020080200200000002044
:10220000F82B0100001F4FF080730360001F016076
:10221000001F054B036014380260001F6FF00203BB
:102220000360203870470000D12000082DE9F041FC
:1022300006460F461D480078012834D11C48006826
:1022400018B90020194908702DE019480068B0F548
:10225000007F11D91748008884B24FF400751548E3
:10226000006800F500701349086011480068A0F587
:1022700000700F4908600FE00E48008884B20C48D7
:10228000008885B20B480068094909680844094973
:102290000860002006490860074802192B46812182
:1022A0003046FEF7F8F80020BDE8F0813801002044
:1022B0003401002030010020B732012070B50446FF
:1022C0000D4605EB850104F55D7000EBC100008B48
:1022D00086B2074831460269064890474FF40073BA
:1022E000044A01212046FEF789F8002070BD000055
:1022F00064000020B730012070B504460D468121EE
:102300002046FEF722F801212046FEF71EF8822122
:102310002046FEF71AF8024948688047002070BD41
:102320006400002010B5044608480068FF280AD061
:1023300007488368074808490268044800689847C6
:10234000FF2002490860002010BD00003C01002071
:1023500064000020400100202401002070B50546E3
:102360000E4602231A0281212846FEF713F80223A3
:102370001A0201212846FEF70DF8032308228221C4
:102380002846FEF707F8084C0220207100206071F3
:102390000649086880474FF40073054A0121284622
:1023A000FEF72CF8002070BD94000020640000208F
:1023B000B730012010B50446074801680068401C8A
:1023C000054A1060282905D10020114608602046E2
:1023D000FEF7D8F9002010BDFC0100202DE9F041E6
:1023E00005460C463A26344F207800F0600070B362
:1023F000202826D1E088D8B1207800F0800058B19C
:10240000E28860782D498B682D499847E2882C49ED
:102410002846FEF7CCFD11E060782A490860E08884
:1024200029490860E28826492846FEF7A9FD05E00B
:102430006078224900228B68114698470020BDE849
:10244000F08121462846FEF78CFD0220F7E7FFE7E2
:102450006078062804D00A2816D00B2826D119E067
:1024600060882121B1EB202F08D1134F0937E08874
:102470003A2801DD3A2000E0E08806463246394637
:102480002846FEF794FD11E0012210492846FEF788
:102490008EFD0BE0A078012803DAA0780B490860D4
:1024A00003E021462846FEF75CFD00BF00BF00BFE9
:1024B00000BF0020C3E700007D0100206400002071
:1024C000240100203C0100204001002020010020C8
:1024D00001460A69D1E901309860D1E901035860E9
:1024E0005068884201D188685060002008611068F7
:1024F000401E10601068704770477047704700F1C9
:10250000080141604FF0FF31816000F10801C160B6
:10251000016100210160704700210161704710B521
:1025200002460B685C1C0CB9106907E002F1080058
:1025300000E04068446824689C42FAD944684C60D2
:102540004C68A160886041600A611468641C146072
:1025500010BD42684A6093688B60936859609160CF
:10256000086103685B1C03607047000010B5FDF74D
:1025700069FE05480068401C03490860BFF34F8F9F
:10258000BFF36F8F10BD00000800002010B5094890
:10259000006818B9FDF756FE00BFFEE70548006861
:1025A000401E044908600846006810B90020FDF785
:1025B00050FE10BD0800002010B504460CB90120E3
:1025C00000E0002018B9FDF73DFE00BFFEE710BD9A
:1025D000064800684FF47A71B0FBF1F0401E4FF0EE
:1025E000E021486107200861704700000C010020CD
:1025F00070B5FDF731FE0546102D0FD305F1E02033
:1026000090F8F0430E480078844201DB012000E09E
:10261000002018B9FDF716FE00BFFEE70948006864
:1026200000F4E06008490968884201D8012000E010
:10263000002018B9FDF706FE00BFFEE770BD0000E0
:102640000C0000200CED00E0100000204FF0805046
:1026500003490860BFF34F8FBFF36F8F70470000CF
:1026600004ED00E0024600200BE0084B53F8303048
:1026700033B9064B43F8301003EBC0035A6002E055
:10268000401C0828F1D300BF70470000002E012035
:1026900070B505460E462C46FFF768FF606C401C7F
:1026A00008B900206064A06C401C08B90020A06438
:1026B000FFF76CFFA06B20B9314604F1240000F055
:1026C0005FF82046FFF723FD70BD000070B504469B
:1026D0000026D4B10F48006808B9012000E00020AE
:1026E00018B9FDF7AFFD00BFFEE700F01BF90A487F
:1026F0000068051909480068001DFFF7E9FE284633
:10270000FFF7D6F900F0A0FD06460EB9FFF79EFFD1
:1027100070BD0000480000202800002014000020A8
:1027200001200149086070473800002070B5054657
:102730000C461DB9FDF786FD00BFFEE70D48016898
:1027400018312846FFF7EBFE0A480068001DFFF726
:10275000BFFE601C30B907480168091D0648FFF735
:10276000F8FE05E00548006806193046FFF7A0F9B5
:1027700070BD000014000020F42E0120280000206D
:1027800070B504460D461CB9FDF75CFD00BFFEE7C1
:102790000848016818312046FFF7DBFE054800684D
:1027A000001DFFF795FE0448006846193046FFF704
:1027B0007FF970BD140000202800002070B5054688
:1027C0002C460DB3A16CE06A88421DD0201DFFF796
:1027D0007FFEA06CE062A06900F0004018B9E06ADA
:1027E000C0F10500A0610949E06A0968884202D980
:1027F0000649E06A0860E16A01EB8101044A02EBE4
:102800008100211DFFF7A5FE70BD00002C000020F7
:10281000402E012070B505462C46002D39D01D49AB
:10282000E06A0968C96A884233D2A06900F00040B2
:1028300028B918480068C06AC0F10500A061E16AC3
:1028400001EB8101144A02EB81016069884201D1E8
:10285000012000E00020C0B1201DFFF739FE0D4827
:102860000068C06AE0620D49E06A0968884202D9DE
:102870000A49E06A0860E16A01EB8101064A02EB5D
:102880008100211DFFF765FE03E002480068C06A71
:10289000E06270BD14000020402E01202C000020BA
:1028A00010B504461CB9FDF7CDFC00BFFEE7034898
:1028B0000068206002480068606010BD3C00002095
:1028C000280000201FB500200090019002900346D0
:1028D00082220FA10390104800F010FB0446012C47
:1028E00002D100F025FD0446012C0AD1FDF7AAFC17
:1028F00001200A49086000200949086000F062F8D8
:1029000004E01CB9FDF79EFC00BFFEE71FBD000000
:1029100049444C4500000000F51C00083000002030
:102920002800002002480068401C014908607047E8
:102930004800002010B51E48006818B101201D494C
:10294000086033E000201B4908600BE01A4800686B
:1029500018B9FDF777FC00BFFEE717480068401E76
:10296000154908601448006800EB8000134951F8CD
:10297000200008B9012000E000200028E6D10E491F
:10298000096801EB81010D4A02EB81004168496849
:10299000416000F1080142688A4202D141684968F9
:1029A00041604168C968064A116000BF10BD00005F
:1029B00048000020380000202C000020402E01207C
:1029C000140000201CB52648014609780191FF211A
:1029D000024611700146097800919DF8001001F03F
:1029E0005001204A117007211F4A116009E01E4959
:1029F0000968491E1C4A11609DF800104906090E1D
:102A000000919DF8001001F080018029EFD0164957
:102A100009680902144A11601146098801F4E0614D
:102A200011600F4A019911701048006840F470005D
:102A30000E4908600846006840F070400860FFF7E3
:102A4000C7FD00200A490860FDF7C6FB0948006879
:102A500040F0404007490860FDF7B0FB00201CBD76
:102A600000E400E00C0000201000002020ED00E059
:102A70000800002034EF00E02DE9F04705460E463F
:102A800017464FF00009DDB15420FFF77FFB0446E5
:102A9000B4B105FB06F000F101084046FFF776FBF4
:102AA0002060206848B1E56326640121204600F0DB
:102AB000BEF884F85070A14602E02046FFF77CFD86
:102AC000B9F1000F03D1FDF7BDFB00BFFEE748469B
:102AD000BDE8F0872DE9FF4383B005460E461F464B
:102AE0004FF000092C461CB9FDF7ACFB00BFFEE718
:102AF0000EB9206C08B9012000E0002018B9FDF7DC
:102B0000A1FB00BFFEE700F09BFA08B9059808B9E1
:102B1000012000E0002018B9FDF794FB00BFFEE79C
:102B200000BFFFF723FDA06B90B3D4F80C803146B3
:102B30002046FFF771F8B7B9A06B401EA06320686C
:102B400010B900F077FA6060206908B9012000E050
:102B50000020B8B904F1100000F032FB012811D1B7
:102B6000FFF774FD0EE0C4F80C80606A08B901201C
:102B700000E0002030B904F1240000F021FB08B18E
:102B8000FFF764FDFFF702FD012007B0BDE8F08309
:102B9000FFE7059818B9FFF7F9FC0020F5E7B9F150
:102BA000000F04D101A8FFF77BFE4FF00109FFF7EA
:102BB000EDFCFFF7B7FEFFF7D9FC606C401C08B9CD
:102BC00000206064A06C401C08B90020A064FFF7DE
:102BD000DDFC05A901A800F057F908BB2046FFF766
:102BE00023F9B8B1206830B9FFF7C0FC6068FFF77F
:102BF00011FEFFF7CBFC04F124000599FFF796FDC9
:102C00002046FFF784FA00F01FFB002889D1FFF768
:102C10001DFD86E72046FFF77AFA00F015FB80E7F6
:102C20002046FFF774FA00F00FFB0020ADE770B507
:102C300005460E462C461CB9FDF704FB00BFFEE717
:102C4000FFF794FCD4E90F12206801FB02006060DA
:102C50000020A0632068A060E06B401E226C216809
:102C600000FB0210E0604FF0FF306064A06476B9B2
:102C7000206908B9012000E0002080B904F11000AB
:102C800000F09EFA01280AD1FFF7E0FC07E004F10A
:102C90001000FFF734FC04F12400FFF730FCFFF7CD
:102CA00075FC012070BD2DE9FF4182B006460F463C
:102CB0001D464FF0000834461CB9FDF7C3FA00BFAB
:102CC000FEE70FB9206C08B9012000E0002018B918
:102CD000FDF7B8FA00BFFEE7022D02D1E06B012834
:102CE00001D1012000E0002018B9FDF7ABFA00BFC8
:102CF000FEE700F0A5F908B9049808B9012000E042
:102D0000002018B9FDF79EFA00BFFEE700BFFFF7ED
:102D10002DFCA06BE16B884201D3022D18D12A460D
:102D200039462046FEF78DFF606A08B9012000E0B1
:102D3000002038B904F1240000F042FA012801D142
:102D4000FFF784FCFFF722FC012006B0BDE8F0810C
:102D5000049818B9FFF71AFC0020F6E7B8F1000F45
:102D600004D16846FFF79CFD4FF00108FFF70EFC09
:102D7000FFF7D8FDFFF7FAFB606C401C08B9002094
:102D80006064A06C401C08B90020A064FFF7FEFB43
:102D900004A9684600F078F8C0B92046FFF751F85A
:102DA00070B104F110000499FFF7C0FC2046FFF752
:102DB000AEF900F049FA0028A9D1FFF747FCA6E7D1
:102DC0002046FFF7A4F900F03FFAA0E72046FFF7FE
:102DD0009EF900F039FA0020B7E72DE9F0470646E2
:102DE000894617461D4634461CB9FDF72BFA00BF2D
:102DF000FEE7B9F1000F01D1206C08B9012000E015
:102E0000002018B9FDF71EFA00BFFEE7022D02D11F
:102E1000E06B012801D1012000E0002018B9FDF786
:102E200011FA00BFFEE7FFF7E3FBFDF70BFA82465E
:102E3000A06BE16B884201D3022D1CD12A46494682
:102E40002046FEF7FEFEA06C401C70B9606A08B90F
:102E5000012000E0002058B904F1240000F0B0F98E
:102E600030B12FB10120386002E0A06C401CA0649A
:102E70004FF0010801E04FF000085046FDF7E9F976
:102E80004046BDE8F08700002DE9F04104460D46BC
:102E90001CB9FDF7D7F900BFFEE71DB9FDF7D2F960
:102EA00000BFFEE7FFF762FB124807682868401C76
:102EB00008B9002619E0104920680968884204D042
:102EC0006068B84201D801260FE06068381A2968A6
:102ED000884209D228686168791A401A2860204619
:102EE000FFF7DEFC002600E00126FFF74FFB30462F
:102EF000BDE8F081280000203C0000202DE9FF4FB4
:102F000081B0804616469A46DDE90E5BB8F1000FA7
:102F100003D1FDF797F900BFFEE7052D01D201208F
:102F200000E0002018B9FDF78DF900BFFEE730463C
:102F30001099FEF7E7FD0446002C5CD0701E216B53
:102F400001EB800929F0070909F0070008B9012001
:102F500000E0002018B9FDF775F900BFFEE7009604
:102F60002A462046119B0299FEF7D2FE5246414660
:102F70004846FFF747F92060BBF1000F01D0CBF8BE
:102F80000040FFF7F3FA25480068401C2349086019
:102F90002348006840B922480460084600680128B8
:102FA0000CD1FEF7E1FE09E01E48006830B91C486C
:102FB0000068C06AA84201D8194804601A4800682D
:102FC000401C194908600846006820641749E06AF7
:102FD0000968884202D91549E06A0860E16A01EB94
:102FE0008101134A02EB8100211DFFF7B2FA01278C
:102FF000FFF7CCFA01E04FF0FF37012F09D1094864
:10300000006830B106480068C06AA84201D2FFF7E4
:103010001DFB384605B0BDE8F08F000024000020FD
:103020001400002030000020400000202C00002070
:10303000402E01200149086870470000140000205C
:103040000549096809B9012005E00449096809B979
:10305000022000E0002070473000002048000020DF
:1030600010B5FFF783FA03480468FFF78FFA20468C
:1030700010BD0000280000202DE9F0414FF00008AD
:1030800044480068002876D143480068401C424903
:10309000086008460668DEB940480068006808B95C
:1030A000012000E0002018B9FDF7CCF800BFFEE7D2
:1030B0003A4807683A480068384908603848076065
:1030C00038480068401C37490860FEF789FF00BF98
:1030D0003548006886423BD300BF3048006800682E
:1030E00008B9012000E0002020B14FF0FF302E4948
:1030F00008602CE029480068C068C4686568AE4272
:1031000002D22948056022E0201DFFF7E1F9A06AFC
:1031100018B104F11800FFF7DBF92449E06A0968E7
:10312000884202D92149E06A0860E16A01EB810125
:103130001F4A02EB8100211DFFF70BFA1D49E06ACF
:103140000968C96A8842C8D34FF00108C5E700BFC3
:1031500018480068C06A00EB8000154951F820004B
:10316000012801D94FF001081348006850B9FFF752
:10317000C5F907E0FFE710480068401C0E490860E9
:10318000FFF7BCF90D48006808B14FF00108404650
:10319000BDE8F08148000020280000201800002031
:1031A0001C0000203C000020440000202C000020D7
:1031B000402E0120140000203400002038000020A0
:1031C00070B50646F068C4681CB9FDF73BF800BF4F
:1031D000FEE704F11800FFF77BF915480068A0B975
:1031E000201DFFF775F91349E06A0968884202D982
:1031F0001049E06A0860E16A01EB81010E4A02EBC6
:103200008100211DFFF7A5F904E004F118010B4826
:10321000FFF79FF90A49E06A0968C96A884204D938
:10322000012501200749086000E00025284670BDFF
:10323000480000202C000020402E0120CC2E012030
:10324000140000203800002070B5002530480068C8
:1032500018B9FCF7F7FF00BFFEE7FFF787F92C4826
:103260000068401E2A4908600846006800284AD1C4
:1032700028480068002846D023E02748C068C46872
:1032800004F11800FFF724F9201DFFF721F9234965
:10329000E06A0968884202D92049E06A0860E16A68
:1032A00001EB81011E4A02EB8100211DFFF751F95C
:1032B0001C49E06A0968C96A884202D301201A4998
:1032C00008601548006808B9012000E000200028C7
:1032D000D3D01648006878B10AE0FFF7CDFE10B1F0
:1032E00001201149086011480068401E0F4908601C
:1032F0000E4800680028F0D10B480068012802D170
:103300000125FFF7A3F9FFF741F9284670BD00003A
:103310004800002024000020CC2E01202C0000209A
:10332000402E01201400002038000020340000202E
:103330001FB50024FEF704FC0C48006868B10020AB
:103340000223CDE90030029003464FF4827208A1B7
:1033500003900948FFF7D2FD04461CB9FCF772FF41
:1033600000BFFEE7204604B010BD0000540000205E
:10337000546D722053766300F52000082DE9FE435A
:1033800005460C4616461F46DDF828804FF000091A
:103390001448006810B3009401960295062C15DAC3
:1033A000FFF74EFE022808D10023424669460D4829
:1033B0000068FFF778FC814610E000231A46694652
:1033C00008480068FFF76FFC814607E000233A4693
:1033D000694604480068FFF700FD81464846BDE89D
:1033E000FE83000054000020800000010002000461
:1033F000200000002000000020000000200000004D
:103400000100002000010000010000000400000095
:10341000000100000100002000010000020008007F
:1034200000000D0008000600280017001000000032
:1034300001000000010000000002000409000A0071
:1034400007000700643400080000002000020000AC
:10345000F00200085435000800020020B83C0100CA
:10346000001A0008811AAA0101381AFF0101153358
:10347000C20112081399191B0895041359181B0847
:1034800031081A01041379101B08C1041AD1041A57
:10349000FD04136D111B0845081A8904131201322B
:1034A00002164083044057480802010203010A063D
:1034B0001212011504030904BC140240041119047A
:1034C0001A08041A20044B1001103904299C4904DD
:1034D000D163C012195B2A04044506070809847ADF
:1034E000030AA9170917F871135D231408F9221BA1
:1034F00008DD08411A25081A2D101ABD045AB51402
:10350000411AB5E41AC5041C090243D7111BC03285
:10351000CB1969190B1B0524B814052401100901E6
:10352000042402020524061701070582030815106A
:103530000904012A029615070501021A02072A81C9
:10354000072B0907430A220443BAFF432A40072AEC
:04355000810761008E
:040000050800018965
:00000001FF
