:020000040800F2
:10000000E83E01206D020008F7110008A10B00086E
:10001000F311000853030008452300080000000006
:10002000000000000000000000000000A90100081E
:10003000D908000800000000F9010008D5180008E0
:10004000870200088702000887020008870200086C
:10005000870200088702000887020008870200085C
:10006000870200088702000887020008870200084C
:10007000870200088702000887020008F1040008D0
:10008000870200088702000887020008870200082C
:10009000870200088702000887020008870200081C
:1000A000870200088702000887020008870200080C
:1000B00087020008870200088702000887020008FC
:1000C00087020008870200088702000887020008EC
:1000D000870200085D1900088702000879190008E6
:1000E00087020008870200088702000887020008CC
:1000F00087020008870200088702000887020008BC
:1001000087020008870200088702000887020008AB
:10011000870200088702000887020008870200089B
:10012000870200088702000887020008870200088B
:10013000870200088702000887020008870200087B
:10014000870200088702000887020008870200086B
:10015000870200088702000887020008870200085B
:10016000870200088702000887020008870200084B
:10017000870200088702000887020008870200083B
:100180008702000887020008A9010008F901000899
:10019000D5180008DFF80CD000F09EF800480047A2
:1001A0002D260008E83E0120284B19680868B0E8B1
:1001B000F04F80F30988BFF36F8F4FF0000080F39A
:1001C000118870470000000005480068006880F34F
:1001D000088862B6BFF34F8FBFF36F8F00DF00BF99
:1001E00008ED00E0DFF80C00016841F470010160E7
:1001F000704700BF88ED00E0EFF30980BFF36F8F19
:10020000124B1A681EF0100F08BF20ED108A20E96B
:10021000F04F106008B44FF0500080F3118803F0E5
:10022000A9F94FF0000080F3118808BC196808682C
:10023000B0E8F04F1EF0100F08BFB0EC108A80F34A
:100240000988BFF36F8F704700BF000014000020C3
:10025000EFF311804FF0500181F31188704780F364
:1002600011887047EFF3058070470000064880470B
:1002700006480047FEE7FEE7FEE7FEE7FEE7FEE78B
:10028000FEE7FEE7FEE7FEE7F51800089501000827
:1002900040EA01039B0703D009E008C9121F08C008
:1002A000042AFAD203E011F8013B00F8013B521E88
:1002B000F9D27047D2B201E000F8012B491EFBD2FF
:1002C00070470022F6E710B513460A460446194661
:1002D000FFF7F0FF204610BD064C074D06E0E06832
:1002E00040F0010394E8070098471034AC42F6D37D
:1002F000FFF754FF546A0008746A000870B58C1840
:1003000010F8015B15F0070301D110F8013B2A1129
:1003100006D110F8012B03E010F8016B01F8016B16
:100320005B1EF9D12B0705D40023521E0DD401F812
:10033000013BFAE710F8013BCB1A921C03E013F8DB
:10034000015B01F8015B521EF9D5A142D8D3002010
:1003500070BD00BFFEE770B506460C4604F0800095
:10036000802808D104F07F0000EB800106F58E7034
:1003700000EBC10507E004F07F0000EB800106F50B
:100380005D7000EBC10504F07F00287004F0800070
:10039000C00968702946304601F04CFE002070BD4F
:1003A0002DE9F04106460D4690461F4605F08000B7
:1003B000802808D105F07F0000EB800106F58E70E3
:1003C00000EBC10407E005F07F0000EB800106F5BB
:1003D0005D7000EBC10405F07F00207005F0800027
:1003E000C0096070C4F80880E770607808B12078B0
:1003F000E080022F01D1002020712146304601F01B
:10040000C1FD0020BDE8F0812DE9F04105460E4612
:100410001746984606F07F0000EB800105F55D70F9
:1004200000EBC104E760C4F814800020A061607094
:1004300006F07F002070E878012800D1276120783D
:1004400020B92146284601F0C1FC03E02146284698
:1004500001F05DFE0020BDE8F08170B506460C4657
:1004600004F08000802808D104F07F0000EB8001B8
:1004700006F58E7000EBC10505E004EB840106F57E
:100480005D7000EBC1050120A87004F07F002870AA
:10049000C4F3C01068702946304601F006FE002003
:1004A00070BD2DE9F04107460D461646984605F009
:1004B0007F0000EB800107F58E7000EBC104012086
:1004C000607005F07F002070E66026610020A0616A
:1004D000C4F81480207820B92146384601F076FC13
:1004E00003E02146384601F012FE0020BDE8F0810D
:1004F00010B52C492C4800F0A1F9002851D02B4808
:100500000068002840D000BF274800F08DF900287F
:10051000FAD12449244800F04FF8254800682549BD
:10052000886022480068B0F5803F02D21F4800680A
:1005300001E04FF6FF701F4908611B4800F0A0F969
:100540000121194800F052F8194800681749096854
:10055000B1F5803F02D21549096801E04FF6FF71FD
:1005600000EB41001249086010480068B0F5803F78
:1005700002D20E48006801E04FF6FF700B4909688F
:10058000081A0A4908600CE00021074800F02EF81C
:100590000449054800F010F800210548006800F003
:1005A0009CF910BD20000020706002401001002066
:1005B000140100206C2F01200246094B9A4201D2FF
:1005C000084801E00648103801F000531BB1064B03
:1005D0000B40C36002E0044B0B4083607047000097
:1005E00010640240006002407D0F7D0F21B102685F
:1005F00042F00102026003E0026822F001020260A0
:100600007047000000B58FB02E4800F061F800BFC1
:100610002C4800F009F90028FAD12A48303000F0BF
:1006200057F800BF2748303000F0FEF80028F9D115
:1006300000904FF0C8400190234802908020039022
:100640004BF6803004904FF4007005900020069027
:100650004FF40060079080000890002009900A90F5
:1006600004200B9003200C9000200D900E90694602
:10067000144800F005F90020009014480190124839
:100680000290802003904BF6803004904FF400706D
:100690000590002006904FF40060079080000890BD
:1006A000002009900A9004200B9003200C90002059
:1006B0000D900E9069460348303000F0E1F80FB01D
:1006C00000BD000028640240020000680077016459
:1006D000016821F001010160002101604160816039
:1006E000C1600161212141614A49884204D13D2113
:1006F000484A103A91608CE046491831884205D149
:100700004FF47461434A103A916082E041493031BC
:10071000884205D14FF474113E4A103A916078E056
:100720003C494831884205D14FF07461394A103A4A
:1007300091606EE037496031884204D13649354ACC
:10074000103AD16065E033497831884204D13349A9
:10075000304A103AD1605CE02E499031884204D191
:100760002F492C4A103AD16053E02A49A8318842D7
:1007700005D14FF03D51274A103AD16049E029494F
:10078000884204D13D21274A083A116041E02549B9
:100790001831884205D14FF47461224A083A116039
:1007A00037E020493031884205D14FF474111D4A99
:1007B000083A11602DE01B494831884205D14FF0BD
:1007C0007461184A083A116023E016496031884282
:1007D00004D11149134A121F11601AE011497831EE
:1007E000884204D10D490F4A121F116011E00D49D2
:1007F0009031884204D10A490A4A121F116008E068
:100800000849A831884204D14FF03D51054A121FD2
:1008100011607047106002403D000020400F002032
:1008200000003D2010640240014600200A6802F0EA
:1008300001020AB1012000E00020704730B50346F4
:100840000A46002000240B4DAB4201D20A4901E0C8
:100850000849103902F000550DB14C6800E00C68F1
:10086000064D2C4004EA02050DB1012000E00020F5
:1008700030BD000010640240006002407D0F7D0F1B
:1008800010B500220268134B1A40CC680B68234352
:100890004C6923438C692343CC6923430C6A23436B
:1008A0004C6A23438C6A23434C6B23438C6B234356
:1008B0001A430260426922F00702D1E90B34234354
:1008C0001A4342610B6943604B6883608B68C36065
:1008D00010BD00003F801CF07047704751B182008E
:1008E000A2F1C042126842F001038200A2F1C042AC
:1008F000136009E08200A2F1C0421268034B1A4063
:100900008300A3F1C0431A6070470000FEFF0F0090
:10091000D0E901121143C2681143026911434269CF
:10092000114382691143C2691143026A1143426A49
:100930001143826A1143C26A1143026B1143026878
:100940009200A2F1C0421160816808290BD10168B0
:100950008900A1F1C041096841F0400201688900A5
:10096000A1F1C0410A60416B0968426B526841EADB
:100970000211426B926841EA0221426B928941EA7C
:100980000241426B128A41EA0251426B127D41EAF6
:100990000261426B926911430268521C9200A2F1FB
:1009A000C0421160C16AB1F5804F1BD1816B0968EB
:1009B000826B526841EA0211826B926841EA02211D
:1009C000826B128A41EA0251826B127D41EA026116
:1009D000826B9269114302689200A2F1C042C2F890
:1009E000041107E06FF0704201688900A1F1C04175
:1009F000C1F804217047F0B50A4600210023002405
:100A000000BF3DE0012505FA01F3156805EA03047E
:100A10009C4234D105684F000326BE40B5430560B3
:100A200015794E00B5400668354305601579012DEE
:100A300002D01579022D16D185684F000326BE40DD
:100A4000B543856055794E00B5408668354385606D
:100A5000456801268E40B5434560456896798E40CD
:100A6000B6B235434560C5684F000326BE40B54366
:100A7000C560D5794E00B540C6683543C560491C90
:100A80001029BFD3F0BDF0B5002300244D07ED0EB3
:100A900002FA05F3CE1000F1200555F826504E0756
:100AA000F70E0F26BE40B543CF1000F1200646F8E2
:100AB0002750CE1000F1200555F8265045EA0304D2
:100AC000CE1000F1200545F82640F0BD70B5064671
:100AD0002E480078012856D02D480068B0F5006FE8
:100AE00002D100202A49086029480068294909687C
:100AF000884203D100202549087070BD2448006851
:100B000024490968884206D921480068C0F5006078
:100B10002149086006E01F4800681D490968401A1D
:100B20001D4908601C480068B0F5007F11D91848BD
:100B3000008884B24FF400751548006800F5007015
:100B40001349086014480068A0F500701249086055
:100B50000FE00F48008884B20F48008885B20C4827
:100B600000680D49096808440949086000200A49DD
:100B70000860012005490870084802192B468121A8
:100B80003046FFF78EFC00BFB7E70000640100208D
:100B90005C0100205801002060010020E3320120A8
:100BA00000BFFEE710B52C204FF0D0410880FFF7C2
:100BB00029FD01210A48FFF719FD00BF0848FFF78A
:100BC00033FE0028FAD1012105483030FFF70EFD31
:100BD00000BF03483030FFF727FE0028F9D110BDD1
:100BE0002864024070B50546002400BF04E00548B3
:100BF000006820F81450641C03488442F7D3FFF7C0
:100C0000D1FF70BD080100200077010070B53A499E
:100C10003A480068FFF755FB002406E04FF6FF70E6
:100C20003649096821F81400641C322CF6D33224AA
:100C300006E04FF6E0703149096821F81400641CA1
:100C4000642CF6D3642406E047F6FF702B4909684C
:100C500021F81400641C962CF6D3962406E04FF479
:100C6000FC602649096821F81400641CC82CF6D3DE
:100C7000C82406E04FF61F002049096821F8140037
:100C8000641CFA2CF6D3FA2406E04FF478401B4992
:100C9000096821F81400641CB4F5967FF5D34FF46D
:100CA000967405E01F201549096821F81400641C9A
:100CB000B4F5AF7FF6D34FF4AF7405E000200F49D1
:100CC000096821F81400641CB4F5C87FF6D3012527
:100CD0000DE04FF4C8716943084A126802EB410005
:100CE0004FF4487205490968FFF7D2FA6D1CF02DE0
:100CF000EFD3FFF757FF70BD00EE020008010020A0
:100D00001CB50121782000F0FBFB4CF23370009001
:100D100002208DF804008DF8050000208DF80600F3
:100D20008DF8070069463E48FFF765FE0C2200215A
:100D30003B48FFF7A8FE0C2201213948FFF7A3FE2C
:100D40000C2204213648FFF79EFE0C220521344870
:100D5000FFF799FE0C2208213148FFF794FE0C2280
:100D600009212F48FFF78FFE0C220A212C48FFF79C
:100D70008AFE0C220E212A48FFF785FE0C220F2145
:100D80002748FFF780FE4FF680700090694625489F
:100D9000FFF731FE0C2207212248FFF774FE0C22D8
:100DA00008212048FFF76FFE0C2209211D48FFF79C
:100DB0006AFE0C220A211B48FFF765FE0C220B215C
:100DC0001848FFF760FE0C2211461648FFF75BFE3D
:100DD0000C220D211348FFF756FE0C220E2111485C
:100DE000FFF751FE0C220F210E48FFF74CFE0120A9
:100DF000009069460C48FFF7FEFD0C2200210A48CE
:100E0000FFF741FE4FF48060009069460748FFF706
:100E1000F2FD0C220A210548FFF735FE1CBD00003B
:100E2000000C024000100240001402400018024072
:100E300070B505460E461446A4F12000C4B207481A
:100E40000068016805480068C088604301EB400203
:100E50002946304600F028F870BD0000000100204F
:100E600070B506460C4600250AE022782946304631
:100E7000FFF7DEFF0B4800688088284485B2641CB9
:100E8000207808B1012000E00020B5F5C87F01DA24
:100E9000012100E0002108400028E6D1FFF782FE92
:100EA00070BD000000010020F0B503460C46002094
:100EB000002100BF3FE0002137E0224D2D68AD88C2
:100EC0000C2695FBF6F5EE008025B5400D4132F875
:100ED0001060354025B91B4D2D68AD880C2D0ADDFD
:100EE00032F8105001268E4035408DB9154D2D68D1
:100EF000AD880C2D0CDD144D2D885E1827184FF48D
:100F0000C87C0CFB0766114F3F6827F816500BE0B2
:100F10000F4D2D885E1827184FF4C87C0CFB076610
:100F20000A4F3F6827F81650491C064D2D68AD88BA
:100F30008D42C2D8401C034D2D68ED888542BAD839
:100F4000F0BD000000010020060100200801002083
:100F50000401002000B597B00121084600F0F0FA26
:100F600001200190002002900920039000200490AD
:100F700005900690079004200890002009900A90A0
:100F800010200B9000200C900D900E900F90109060
:100F90004FF480501190002012901390149001A8EB
:100FA0001590169008A8FFF7B3FC01210420FFF765
:100FB00095FC17B000BD00000148006870470000B4
:100FC0000001002010B50121880500F099FA4FF0CA
:100FD000C840284908604FF4000126480068FFF720
:100FE00070F9FFF78DFEFFF7B5FFFFF70BFB012050
:100FF00001F00AFB01204FF0D0410880D02008808A
:10100000072048800120488008204880D12008809F
:10101000002048807120488019204880D220088014
:101020000120488044204880112008800A2001F0D7
:10103000EBFA36204FF0D0410880282048803A2033
:101040000880552048802A20088000204880488059
:10105000012048808F2048802B2008800020488075
:1010600048804880EF20488029200880024800F00E
:101070000DF810BD08010020E000002001B5BDF80A
:1010800000000149088008BD0601002001490860F0
:10109000704700000001002001B5BDF800000149C3
:1010A000088008BD04010020FFF78CFF4EE04FF6DA
:1010B000FF70FFF797FDFFF7A9FD4FF6FF70FFF7F1
:1010C000DDFF1F20FFF7E8FFFFF776FF002420A1D8
:1010D0002046FFF7C5FEFFF76FFFC48823A1204617
:1010E000FFF7BEFEFFF768FFC0884004040C26A18E
:1010F0002046FFF7B5FE4FF47A7002F007F90020A2
:10110000FFF770FDFFF782FD0020FFF7B7FF4FF6F6
:10111000FF70FFF7C1FFFFF74FFF00240CA120462F
:10112000FFF79EFEFFF748FFC48810A12046FFF797
:1011300097FEFFF741FFC0884004040C12A120462F
:10114000FFF78EFE4FF47A7002F0E0F8AFE7000090
:101150002020202020202053544D33324634303775
:10116000787820202020202020000000202020202F
:101170004465766963652072756E6E696E67206F6F
:101180006E2020202000000020202020202020533E
:10119000544D333246342D45564220202020202005
:1011A0002000000000BF002000F0E6FA012000F05F
:1011B000E3FA022000F0E0FA032000F0DDFA17E085
:1011C000002000F0FFFA642002F0A0F8012000F0F7
:1011D000F9FA642002F09AF8022000F0F3FA642091
:1011E00002F094F8032000F0EDFA642002F08EF88B
:1011F000E6E700BFFEE7704770B5002100230F222D
:10120000C4781CB3174C246804F4E064C4F5E064AB
:10121000C4F30721C1F10404E3B20A4144789C40BD
:10122000E1B28478144021430C07210E0E4C05785E
:101230006155047804F01F050124AC4005786D1158
:10124000AD0005F1E025C5F8004109E0047804F09F
:101250001F050124AC40054D0678761145F826405F
:1012600070BD00000CED00E000E400E080E100E073
:1012700000B599B00121782000F042F9012108461B
:1012800000F05EF90C2200219948FFF7FCFB0C22CC
:1012900001219748FFF7F7FB0C2204219448FFF740
:1012A000F2FB0C2205219248FFF7EDFB0C220821EE
:1012B0008F48FFF7E8FB0C2209218D48FFF7E3FB7D
:1012C0000C220A218A48FFF7DEFB0C220B218848FA
:1012D000FFF7D9FB0C2211468548FFF7D4FB0C22FF
:1012E0000D218348FFF7CFFB0C220E218048FFF72A
:1012F000CAFB0C220F217E48FFF7C5FB4FF6337067
:10130000019002208DF8080003208DF809000020CC
:101310008DF80A008DF80B0001A97548FFF76BFBEB
:101320000C2200217348FFF7AEFB0C22012171480B
:10133000FFF7A9FB0C2202216E48FFF7A4FB0C2249
:1013400003216C48FFF79FFB0C2204216948FFF73B
:101350009AFB0C2205216748FFF795FB0C2206211A
:101360006448FFF790FB0C2207216248FFF78BFBD4
:101370000C2208215F48FFF786FB0C2209215D48FB
:10138000FFF781FB0C220A215A48FFF77CFB0C2255
:101390000B215848FFF777FB0C2211465548FFF701
:1013A00072FB0C220D215348FFF76DFB0C220E211E
:1013B0005048FFF768FB0C220F214E48FFF763FBF4
:1013C0004FF6FF70019001A94A48FFF714FB0C2269
:1013D00000214948FFF757FB0C2201214648FFF73F
:1013E00052FB0C2202214448FFF74DFB0C22032143
:1013F0004148FFF748FB0C2204213F48FFF743FB1D
:101400000C2205213C48FFF73EFB0C2211463A48CE
:10141000FFF739FB0C220D213748FFF734FB0C2274
:101420000E213548FFF72FFB0C220F213248FFF722
:101430002AFB4FF23F00019001A92F48FFF7DBFA8A
:101440000C2200212D48FFF71EFB0C2201212B4806
:10145000FFF719FB0C2202212848FFF714FB0C228E
:1014600003212648FFF70FFB0C2204212348FFF736
:101470000AFB0C2205212148FFF705FB0C2209215C
:101480001E48FFF700FB40F23F20019001A91B48D6
:10149000FFF7B1FA02200390002004900B20059082
:1014A00001200690002007900890099002200A90E1
:1014B00000200B9004200C9010200D9000200E9026
:1014C0000F901090119012904FF4805013900020C4
:1014D00014901590169003A8179018900AA8FFF77B
:1014E00017FA01210220FFF7F9F919B000BD000039
:1014F000000C02400010024000140240001802409C
:1015000029B1064A12680243044B1A6004E0034AF8
:1015100012688243014B1A60704700003038024065
:1015200029B1064A12680243044B1A6004E0034AD8
:1015300012688243014B1A60704700003438024041
:1015400029B1064A12680243044B1A6004E0034AB8
:1015500012688243014B1A6070470000383802401D
:1015600029B1064A12680243044B1A6004E0034A98
:1015700012688243014B1A607047000044380240F1
:10158000F0B5002100220024022500260223324F5C
:101590003F6807F00C0121B1042905D0082937D193
:1015A00005E02E4F076036E02D4F076033E02A4FED
:1015B0003F1F3F68C7F38056274F3F1F3F6807F024
:1015C0003F036EB1264FB7FBF3F7DFF88CC0ACF1E9
:1015D000040CDCF800C0CCF3881C07FB0CF40CE016
:1015E0001E4FB7FBF3F7DFF870C0ACF1040CDCF86A
:1015F00000C0CCF3881C07FB0CF4174F3F1F3F685B
:10160000C7F301477F1C7D00B4FBF5F7076002E0DC
:10161000124F076000BF00BF0F4F3F6807F0F00197
:101620000909104F7A5C0768D74047600A4F3F6846
:1016300007F4E051890A0B4F7A5C4768D74087600E
:10164000054F3F6807F46041490B064F7A5C4768D5
:10165000D740C760F0BD0000083802400024F40005
:1016600040787D01250100203EB504460D46252029
:101670008DF8000000208DF801008DF80200012097
:101680008DF803006846FFF7B7FD2E4951F8241086
:101690002D4A52F8242041EA02000121FFF730FFD1
:1016A0002A4951F824000121FFF75AFF284B13F86B
:1016B0001420284B33F81410274B53F82400FFF75D
:1016C000E2F9264B13F81420254B33F81410254B60
:1016D00053F82400FFF7D7F900208DF80A00012005
:1016E0008DF80B0002208DF808001F4830F8140018
:1016F000019002208DF80900174951F8240001A932
:10170000FFF779F902208DF80800184830F8140026
:101710000190144951F8240001A9FFF76CF914490C
:1017200051F82400294600F0A5F9114951F8240088
:10173000012100F037F9012240F225510D4800F057
:1017400074F93EBD70400008744000086C40000809
:10175000804000087C400008D4000020824000083F
:101760007E400008D8000020784000087A40000839
:10177000D0000020001001401CB504460E4951F86D
:1017800024000121FFF7BCFE0C4830F81400009043
:1017900001208DF8040000208DF8060001208DF84E
:1017A000070002208DF80500054951F8240069461C
:1017B000FFF721F91CBD0000304000082840000858
:1017C000B4000020064951F820104969054A32F852
:1017D00010205140024A52F8202051617047000009
:1017E000B4000020284000080CB5002001900090B3
:1017F0003448006840F480303249086000BF314806
:10180000006800F4003000900198401C019000989E
:1018100018B90198B0F5A04FF1D12A48006800F43A
:10182000003010B10120009001E0002000900098ED
:10183000012846D123484030006840F080502149BB
:10184000403108602048006840F440401E4908606C
:101850001C48083000681B490831086008460068C9
:1018600040F4004008600846006840F4A05008605A
:101870001648091F0860081F006840F08070091FA3
:10188000086000BF0F48006800F000700028F9D021
:1018900040F205700E4908600A480830006820F0E0
:1018A00003000849083108600846006840F002005B
:1018B000086000BF03480830006800F00C000828EA
:1018C000F8D10CBD003802400070004019544007A8
:1018D000003C024010B5FEF7BBFC02F0EDF918B178
:1018E0004FF08050024908600020FEF7B8FC10BDA0
:1018F00004ED00E010B51548006840F4700013498D
:1019000008601348006840F0010011490860002099
:101910000F49083108600E4800680E4908400C491C
:1019200008600D48091D0860081F006820F4802029
:10193000091F0860002006490C310860FFF754FFBA
:101940004FF0006001498039086010BD88ED00E06B
:1019500000380240FFFFF6FE1030002410B50548A5
:1019600000F0F2F800F07F042146024800F0F1F8A0
:1019700010BD00000010014010B540F2255108488C
:1019800000F029F818B10021084600F0CDFD08212B
:10199000034800F013F810B1014800F0D5F810BD6D
:1019A0000010014021B1828942F40052828104E09A
:1019B00082894DF6FF731A408281704702460020EB
:1019C000B1F5007F00D100BF13880B400BB101209F
:1019D00000E00020704770B5024600240023002577
:1019E000002040F66A16B14200D100BFC1F3421593
:1019F00001F01F03012606FA03F3012D02D1968997
:101A0000334006E0022D02D1168A334001E0968A67
:101A100033400C12012606FA04F41688344013B140
:101A20000CB1012000E0002070BDF0B50346002499
:101A300000260025002040F66A17B94200D100BFF9
:101A40001846C1F3421401F01F06012707FA06F5F4
:101A5000012C01D10C3004E0022C01D1103000E047
:101A600014301AB107682F43076002E00768AF43DC
:101A70000760F0BD2DE9FF4705460E460024A1464C
:101A800000BFA046B08900B100BF2C8A24F44054A6
:101A9000F08804432C82AC8941F20C608443B08806
:101AA00031890843718908430443AC81AC8A24F42A
:101AB0004074B0890443AC826846FFF761FD20485A
:101AC000854202D01F48854202D1DDF80C9001E02A
:101AD000DDF80890A88900F4004040B109EBC90086
:101AE00000EB091031684900B0FBF1F707E009EBA2
:101AF000C90000EB091031688900B0FBF1F76420E0
:101B0000B7FBF0F004012009642101FB1078A889DB
:101B100000F4004040B1322000EBC800B0FBF1F00F
:101B200000F00700044308E0322000EB08106421B5
:101B3000B0FBF1F000F00F0004432C81BDE8FF87FB
:101B4000001001400014014001468888C0F30800DD
:101B50007047C1F308028280704770B504460D4695
:101B600080212046FEF779FC00212046FEF775FC17
:101B7000204600F0D6F970BD2DE9F04104460E462E
:101B800015460027C4F89453C4F89053032140F23B
:101B9000111001552B46324600212046FEF734FC39
:101BA0003846BDE8F0812DE9F04104460E46154661
:101BB0000027C4F83C51C4F83851022140F21110FA
:101BC00001552B46324600212046FEF76AFC384676
:101BD000BDE8F0810146002002E0421CD0B2491C61
:101BE0000A78002AF9D170472DE9F04104460D46E4
:101BF00017460026FCB12046FFF7ECFF022101EB5F
:101C0000400038803A783046711CCEB22A54032204
:101C10003046711CCEB22A540AE014F8012B30462B
:101C2000711CCEB22A5400223046711CCEB22A5406
:101C300020780028F1D1BDE8F081000070B505469C
:101C40000C462DB92246064906A0FFF7CDFF04E059
:101C50002246034903A0FFF7C7FF014870BD0000FB
:101C6000E42F012056435020436F6E6669670000E1
:101C700002461220088001487047000094000020AE
:101C800070B505460C462DB92246064906A0FFF759
:101C9000ABFF04E02246034903A0FFF7A5FF01487C
:101CA00070BD0000E42F012056435020496E74653A
:101CB00072666163650000000246042008800148E6
:101CC00070470000B000002070B505460C46224663
:101CD000024903A0FFF788FF004870BDE42F0120F0
:101CE00053544D6963726F656C656374726F6E698E
:101CF0006373000070B505460C462DB922460649AF
:101D000006A0FFF771FF04E0224603490CA0FFF78D
:101D10006BFF014870BD0000E42F012053544D3388
:101D200032205669727475616C20436F6D506F720A
:101D30007420696E204853206D6F646500000000B8
:101D400053544D3332205669727475616C20436F61
:101D50006D506F727420696E204653204D6F64651C
:101D60000000000070B505460C462DB92246064914
:101D700006A0FFF739FF04E02246034907A0FFF75A
:101D800033FF014870BD0000E42F012030303030B7
:101D900030303030303530420000000030303030EC
:101DA00030303030303530430000000002464320F0
:101DB0000880014870470000A0010020024643202F
:101DC0000880014870470000E3010020FEB502468C
:101DD000002000240025029500954D78012D52D158
:101DE00093691D6802951D6900954D6955B9009D5F
:101DF00025F07F050095009D25F4C01505F500250B
:101E0000009516E08E684D69B54207D98D684D6121
:101E10000E7A009D66F30605009504E00E7D009D98
:101E200066F306050095009D25F4C01505F500250F
:101E30000095009D1D61D578012D06D10F7802F126
:101E4000180555F827500E696E61029D25F08065D2
:101E500005F180650295029D25F0004505F10045DC
:101E60000295029D1D60D578002D59D14D69002D38
:101E700056D00E780125B5402C4315696D6B25436E
:101E8000166975634CE00E7802F1540555F826503A
:101E90002D6802950E7802F1540555F826502D69EB
:101EA00000954D695DB90E7A009D66F306050095B3
:101EB000009D25F4C01505F5002500950CE08D6802
:101EC0004D610E7A009D66F306050095009D25F490
:101ED000C01505F5002500950F7802F1540555F859
:101EE0002750009E2E61D578012D06D10F7802F182
:101EF000540555F827500E696E61029D25F08065E6
:101F000005F180650295029D25F0004505F100452B
:101F100002950F7802F1540555F82750029E2E6065
:101F2000FEBD0EB500210191019921F04041A1F1C2
:101F300080410191019921F4C01101F50021019125
:101F4000019921F07F0118310191019A416D0A61D7
:101F5000C178012915D10021009100F2CC51426DC8
:101F60005161416D09680091009921F0004101F132
:101F7000004100914FF080210091009A416D0A606C
:101F800000BF0EBD3CB50246002000240194009421
:101F90004C78012C0CD10D7802F1180454F825303E
:101FA0000D780124AC40009D64F30F0500950BE013
:101FB0000D7802F1540454F825300D780124AC401A
:101FC000009D64F31F4500951C680194019CC4F3B7
:101FD000C034E4B90D89019C65F30A040194CD78FD
:101FE000019C65F3934401948D79019C65F39954A8
:101FF0000194019C24F0805404F180540194019CCC
:1020000024F4004404F500440194019C1C600C7805
:10201000012C08D1D47A34B91469E46B009D2C43A7
:102020001569EC6305E01469E469009D2C431569AA
:10203000EC613CBD3CB502460020002401940094B4
:102040004C78012C0CD10D7802F1180454F825308D
:102050000D780124AC40009D64F30F0500950BE062
:102060000D7802F1540454F825300D780124AC4069
:10207000009D64F31F450095019C24F400440194E5
:10208000019C1C600C78012C08D1D47A34B91469F5
:10209000E46B009DAC431569EC6305E01469E469E9
:1020A000009DAC431569EC613CBD38B503460A465A
:1020B0000020002400945478012C18D1157803F1E5
:1020C000180454F825100C680094009CE40F2CB1FF
:1020D000009C24F0804404F180440094009C24F48B
:1020E000001404F500140094009C0C600EE01578B8
:1020F00003F1540454F825100C680094009C24F457
:10210000001404F500140094009C0C6038BDFEB56A
:1021100005460C46002600270020029001906078BA
:1021200001287ED1217805F1180050F821000068BF
:102130000290217805F1180050F821000069019003
:10214000606948B901986FF312000190012101986C
:1021500061F3DC40019017E06169019861F31200BE
:1021600001906069401EA1680844B0FBF1F101983C
:1021700061F3DC400190E078012805D1019820F05E
:10218000C04000F100500190227805F1180050F88D
:10219000220001990161E878012807D1227805F130
:1021A000180050F82200216941610DE0E078012813
:1021B0000AD0606940B12178012000FA01F728694E
:1021C000406B384329694863E078012813D12869B6
:1021D000806800900098C0F3002030B9029820F089
:1021E000005000F10050029005E0029820F080506D
:1021F00000F180500290029820F0806000F1806031
:102200000290029820F0004000F1004002902278F5
:1022100005F1180050F8220002990160E0780128C9
:1022200000E008E06CD1A08A83B222782846E168F9
:1022300000F068F864E0217805F1540050F82100BE
:1022400000680290217805F1540050F821000069DF
:102250000190606950B9A168019861F31200019082
:102260000121019861F3DC40019013E0A068401E59
:1022700061690844A168B0FBF1F1019861F3DC40A9
:1022800001900198C0F3C940A1684843019960F3E7
:1022900012010191227805F1540050F822000199B1
:1022A0000161E878012806D1227805F1540050F840
:1022B000220021694161E07801280ED1607930B1B6
:1022C000029820F0005000F10050029005E00298C2
:1022D00020F0805000F180500290029820F0806041
:1022E00000F180600290029820F0004000F1004070
:1022F0000290227805F1540050F822000299016002
:102300003046FEBD2DE9F04104460026E078B0B924
:1023100000270020DD1C4FEAE57805EB98784FEAAE
:10232000A80704F1D00555F822C000BF04E00D68ED
:10233000CCF80050401C091DB842F8D300BF30460D
:10234000BDE8F08100BFFEE710B50446BCB94FF40C
:10235000E1303C49086000208880C8804FF4C060AC
:102360000881002088810C2048810020FFF77CF93B
:10237000012240F225513448FFF757FB5FE0334814
:10238000007920B1012806D002280ED108E00020F3
:102390002C49C8800EE04FF440502A49C88009E01B
:1023A0004FF400502749C88004E00020FFF7CCFF1D
:1023B000022010BD00BF2548407920B1012806D079
:1023C00002280ED108E000201E4908810EE04FF4DB
:1023D00080601C49088109E04FF4C06019490881F8
:1023E00004E00020FFF7B0FF0220E2E700BF17483B
:1023F0008079072802D0082810D103E00020114975
:10240000888010E00F48008918B900200D498880A5
:1024100003E04FF480500B49888004E00020FFF770
:1024200093FF0220C5E700BF08480068054908601F
:10243000002088810C2048810020FFF715F900203A
:10244000B7E700005C2F0120001001405C00002075
:1024500070B505460C461646042D15D007DC7DB137
:10246000012D0ED0022D0DD0032D3FD10BE0202DDC
:102470000BD0212D1FD0222D36D0232D36D134E084
:1024800035E034E033E032E031E02078617840EA52
:102490000120A17840EA0140E17840EA0160154955
:1024A00008602079087160794871A07988710120ED
:1024B000FFF74AFF1BE00F48007820700D480088A6
:1024C000000A60700B480068000CA07009480068A2
:1024D000000EE0700748007920710648407960716D
:1024E00004488079A07102E001E000E000BF00BF75
:1024F000002070BD5C00002070B505460E4600242B
:102500000BE0295D0748FFF724FB00BF8021054849
:10251000FFF754FA0028F9D0641CB442F1D300202C
:1025200070BD00000010014070B504460D46134810
:102530008079072809D11248FFF706FB00F07F00D9
:102540001049114A126888540AE00C48807908281A
:1025500006D10B48FFF7F8FA0A490B4A126888546B
:1025600009480068401C0849086008460068B0F542
:10257000006F01D100200860002070BD5C000020C9
:1025800000100140E3320120580100200020704774
:1025900008B54FF4E1301249086000208880C880F7
:1025A0004FF4C0600881002088810C204881002001
:1025B000FFF75AF8012240F225510A48FFF735FA91
:1025C00025208DF8000000208DF801008DF8020014
:1025D00001208DF803006846FEF70EFE002008BDBE
:1025E0005C2F01200010014002E008C8121F08C142
:1025F000002AFAD170477047002001E001C1121F84
:10260000002AFBD17047000001B581B00020009086
:10261000054901984843009002E00098401E009050
:1026200000980028F9D10CBDA086010030B589B012
:1026300005A8FEF7A5FF64220698B0FBF2F1481E3C
:10264000B0F1807F00D31BE0481E4FF0E0225061C4
:1026500050170F22002807DA13071D0E1C4B00F03D
:102660000F04241F1D5503E013071C0E194B1C54A7
:1026700000BF00204FF0E02290610720106100BFF2
:1026800001214020FEF74CFFFEF7F2FDFFF732F983
:1026900000200323CDE90030029003464FF400727E
:1026A0000DA10390104801F049FA00200223CDE962
:1026B0000030029003464FF4007207A103900B48CC
:1026C00001F03CFA00F01EFF002009B030BD000010
:1026D00018ED00E000E400E0496D706C656D656E1A
:1026E00074204C4544000000A5110008A910000802
:1026F00010B504460E48006844600E4800688442E5
:1027000007D20B480168091D0B48006800F027FD3F
:102710000CE007480168091D0848006800F01FFD2B
:1027200007480068844201D20548046010BD0000DB
:1027300014000020280000201C00002018000020A9
:102740004400002070B505460E464C2000F03EFBCC
:10275000044694B11EB9A80000F038FB00E03046F2
:102760002063206B20B9204600F046FD002404E0E1
:10277000A900A522206BFDF79DFD204670BD00003D
:1027800010B500F013FD1448006808BB134800F0B2
:10279000D6FC134800F0D3FC1048124908601048DA
:1027A0001149086000220C210A2000F085FF0A4927
:1027B00008600846006818B9FDF74AFD00BFFEE74B
:1027C0000548006820B109A10348006800F06AFDCF
:1027D00000F0FCFC10BD000054000020342F01204C
:1027E000482F01204C00002050000020546D7251F1
:1027F0000000000070B523E000F0B4FE134800684C
:1028000008B9012000E00020054601F03DFBBDB9FC
:1028100000F0CCFC0D48C068C468201D00F078FCB6
:102820000B480068401E0A4908600A480068401EBC
:102830000849086000F0CAFC204600F05DF800BFBF
:10284000044800680028D7D170BD00000C2F01207B
:10285000240000202000002070B504460D462068AA
:1028600070B1216CE0680844E0606168E06888420B
:1028700001D32068E0602846226CE168FDF708FD7E
:1028800070BD70B504460E461546206C38B92068F8
:1028900070BB606800F0B2FD0020606028E07DB988
:1028A0003146226CA068FDF7F3FC216CA068084457
:1028B000A060D4E9011088421AD32068A06017E014
:1028C0003146226CE068FDF7E3FC216CE068401AB9
:1028D000E0602168E068884203D2216C6068401A99
:1028E000E060022D04D1A06B10B1A06B401EA0636C
:1028F000A06B401CA06370BD10B50446206B00F0B7
:102900007BFC204600F078FC10BD00000146084A20
:10291000126812680AB9012200E000220A600A68FF
:1029200022B9034A1268D268106800E0002070479C
:102930004C00002000BFFFF75DFF0448006801283D
:1029400001D900F0A3FC00F0F7FBF4E76C2E0120A6
:102950002DE9F04704460F4615469946DDF82080DC
:10296000002607E0B95D04F134008155B85D00B977
:1029700002E0761C0A2EF5D300BF00213D20015550
:10298000052D00D30425E562A564201D00F0E4FBBD
:1029900004F1180000F0E0FB2461C5F10500A0611E
:1029A0006462BDE8F087000010B5002407E004EB86
:1029B00084010F4A02EB810000F0C1FB641C052C6E
:1029C000F5D30C4800F0BBFB0B4800F0B8FB0B48FC
:1029D00000F0B5FB0A4800F0B2FB0A4800F0AFFB7C
:1029E00004480949086004480849086010BD00000F
:1029F0006C2E0120D02E0120E42E0120F82E012083
:102A00000C2F0120202F0120180000201C00002086
:102A10002DE9F04104460D4616461F464FF00008CA
:102A200065602461B5420CD8F01BA169884202D3CD
:102A30004FF0010811E0211D0948006800F08FFBEC
:102A40000BE0BE4204D2BD4202D34FF0010804E0C5
:102A5000211D0448006800F082FB4046BDE8F0817B
:102A6000500000204C00002070B5054600F09EFB91
:102A7000A86B08B9012400E0002400F0A7FB204661
:102A800070BD70B5054600F091FBA86BE96B8842FC
:102A900001D1012400E0002400F098FB204670BD25
:102AA000F8B505460F4613480068C068C468201D85
:102AB00000F02EFBE069012817D1A06941192B46CF
:102AC0003A462046FFF7A4FF01280ED10020034616
:102AD0002A4601460090204601F070FA06461EB9CB
:102AE000FDF7B6FB00BFFEE700BF2046616A8847DE
:102AF000F8BD00004C00002070B586B05DE0039882
:102B000000285ADB059C606908B9012000E000201C
:102B100010B9201D00F0FCFA02A800F09BF8054651
:102B200003980A2847D2DFE800F00905072B2D4259
:102B300006082C2E00BF00BF00BF00BF0498A2698A
:102B4000811803462A462046FFF762FF012816D166
:102B50002046616A8847E069012810D10020009072
:102B60000498A169421800231946204601F026FA6C
:102B700006461EB9FDF76CFB00BFFEE700BF1BE079
:102B800000BF19E000BF0498A061A06908B101204E
:102B900000E0002018B9FDF75BFB00BFFEE7A0696D
:102BA00041192B462A462046FFF732FF04E0204613
:102BB00000F022FB00E000BF00BF00231A4603A97B
:102BC0000348006800F0A6FD002898D106B070BD4B
:102BD00054000020F8B504460E4600F0C3FC6846D9
:102BE00000F038F805460098A0B946B9AC4206D8BE
:102BF00001F04AF929462046FFF752FF0CE0611B1D
:102C00000648006800F064FB01F03EF920B900F0CE
:102C10003DFB01E001F038F9F8BD00005400002050
:102C20000A490968096809B9012100E0002121B1B8
:102C30004FF0FF31064A116006E004490968C9688F
:102C4000C868034A416811607047000018000020FE
:102C50004400002070B5044601F022F805460748FC
:102C60000068854204D200F00BF80120206001E0EA
:102C70000020206001480560284670BD58000020F3
:102C80002DE9F8432BE020480068C06805681E481D
:102C90000068C068C468201D00F03AFA2046616AE6
:102CA0008847E06901281AD1A0694619AE4207D9C0
:102CB00066602461211D1448006800F050FA0EE09F
:102CC000002003462A4601460090204601F076F98E
:102CD00007461FB9FDF7BCFA00BFFEE700BF0A4870
:102CE0000068006808B9012000E000200028CAD070
:102CF0000548D0F80080054800680349086003488B
:102D0000C0F80080BDE8F8834C000020500000208F
:102D100007480068401C08B9012000E0002018B9ED
:102D2000FDF796FA00BFFEE7FDF792FA00BFFEE757
:102D30000800002008B500BF6846FFF7E7FD04461D
:102D400020460099FFF746FFFFF7D6FEF4E710B5DF
:102D5000044600F02BFA11E0606A08B9012000E097
:102D6000002038B904F1240001F04AF818B100F04D
:102D7000F7FA00E005E0A06C401EA064A06C0028FB
:102D8000EADC00BF4FF0FF30A06400F01FFA00F053
:102D90000DFA11E0206908B9012000E0002050B9C7
:102DA00004F1100001F02CF808B100F0D9FA606CC1
:102DB000401E606400E002E0606C0028EADC00BFB6
:102DC0004FF0FF30606400F001FA10BD70B50446AA
:102DD000002504F0070020B104F00700C0F108004E
:102DE000044400F0BFFB1348006820B9124820F0EB
:102DF00007001049086011480068204410498842C3
:102E000010D20E48006820440C490968884209D94C
:102E100008480068094909684518084800682044BE
:102E20000649086001F030F80DB900F086F928462F
:102E300070BD0000040000203402002000000020CB
:102E4000F82B0100001F4FF080730360001F01602A
:102E5000001F054B036014380260001F6FF002036F
:102E60000360203870470000112D00082DE9F04163
:102E700006460F461D480078012834D11C480068DA
:102E800018B90020194908702DE019480068B0F5FC
:102E9000007F11D91748008884B24FF40075154897
:102EA000006800F500701349086011480068A0F53B
:102EB00000700F4908600FE00E48008884B20C488B
:102EC000008885B20B480068094909680844094927
:102ED0000860002006490860074802192B46812136
:102EE0003046FDF7DEFA0020BDE8F08164010020E5
:102EF000600100205C010020E332012070B504462F
:102F00000D4605EB850104F55D7000EBC100008BFB
:102F100086B2074831460269064890474FF400736D
:102F2000044A01212046FDF76FFA002070BD000021
:102F300064000020E330012070B504460D46812175
:102F40002046FDF708FA01212046FDF704FA822108
:102F50002046FDF700FA024948688047002070BD0E
:102F60006400002010B5044608480068FF280AD015
:102F7000074883680748084902680448006898477A
:102F8000FF2002490860002010BD000068010020F9
:102F9000640000206C0100205001002070B505463F
:102FA0000E4602231A0281212846FDF7F9F9022371
:102FB0001A0201212846FDF7F3F903230822822192
:102FC0002846FDF7EDF9084C0220207100206071C1
:102FD0000649086880474FF40073054A01212846D6
:102FE000FDF712FA002070BD94000020640000205C
:102FF000E330012010B50446074801680068401C12
:10300000054A1060282905D1002011460860204695
:10301000FDF75CFD002010BD280200202DE9F041E5
:1030200005460C463A26344F207800F0600070B315
:10303000202826D1E088D8B1207800F0800058B14F
:10304000E28860782D498B682D499847E2882C49A1
:103050002846FEF7A8FD11E060782A490860E0885C
:1030600029490860E28826492846FEF785FD05E0E3
:103070006078224900228B68114698470020BDE8FD
:10308000F08121462846FEF768FD0220F7E7FFE7BA
:103090006078062804D00A2816D00B2826D119E01B
:1030A00060882121B1EB202F08D1134F0937E08828
:1030B0003A2801DD3A2000E0E088064632463946EB
:1030C0002846FEF770FD11E0012210492846FEF760
:1030D0006AFD0BE0A078012803DAA0780B490860AC
:1030E00003E021462846FEF738FD00BF00BF00BFC1
:1030F00000BF0020C3E70000A901002064000020F9
:1031000050010020680100206C0100204C010020CB
:1031100001460A69D1E901309860D1E9010358609C
:103120005068884201D188685060002008611068AA
:10313000401E10601068704770477047704700F17C
:10314000080141604FF0FF31816000F10801C1606A
:10315000016100210160704700210161704710B5D5
:1031600002460B685C1C0CB9106907E002F108000C
:1031700000E04068446824689C42FAD944684C6086
:103180004C68A160886041600A611468641C146026
:1031900010BD42684A6093688B6093685960916083
:1031A000086103685B1C03607047000010B5FDF701
:1031B0004FF805480068401C03490860BFF34F8F73
:1031C000BFF36F8F10BD00000800002010B5094844
:1031D000006818B9FDF73CF800BFFEE70548006835
:1031E000401E044908600846006810B90020FDF739
:1031F00036F810BD0800002010B504460CB90120B7
:1032000000E0002018B9FDF723F800BFFEE710BD6D
:10321000064800684FF47A71B0FBF1F0401E4FF0A1
:10322000E021486107200861704700003801002054
:1032300070B5FDF717F80546102D0FD305F1E02006
:1032400090F8F0430E480078844201DB012000E052
:10325000002018B9FCF7FCFF00BFFEE70948006832
:1032600000F4E06008490968884201D8012000E0C4
:10327000002018B9FCF7ECFF00BFFEE770BD0000AE
:103280000C0000200CED00E0100000204FF08050FA
:1032900003490860BFF34F8FBFF36F8F7047000083
:1032A00004ED00E0024600200BE0084B53F83030FC
:1032B00033B9064B43F8301003EBC0035A6002E009
:1032C000401C0828F1D300BF704700002C2E0120BD
:1032D00070B505460E462C46FFF768FF606C401C33
:1032E00008B900206064A06C401C08B90020A064EC
:1032F000FFF76CFFA06B20B9314604F1240000F009
:103300005FF82046FFF723FD70BD000070B504464E
:103310000026D4B10F48006808B9012000E0002061
:1033200018B9FCF795FF00BFFEE700F01BF90A484B
:103330000068051909480068001DFFF7E9FE2846E6
:10334000FFF7D6F900F0A0FD06460EB9FFF79EFF85
:1033500070BD00004800002028000020140000205C
:1033600001200149086070473800002070B505460B
:103370000C461DB9FCF76CFF00BFFEE70D48016865
:1033800018312846FFF7EBFE0A480068001DFFF7DA
:10339000BFFE601C30B907480168091D0648FFF7E9
:1033A000F8FE05E00548006806193046FFF7A0F969
:1033B00070BD000014000020202F012028000020F4
:1033C00070B504460D461CB9FCF742FF00BFFEE78E
:1033D0000848016818312046FFF7DBFE0548006801
:1033E000001DFFF795FE0448006846193046FFF7B8
:1033F0007FF970BD140000202800002070B505463C
:103400002C460DB3A16CE06A88421DD0201DFFF749
:103410007FFEA06CE062A06900F0004018B9E06A8D
:10342000C0F10500A0610949E06A0968884202D933
:103430000649E06A0860E16A01EB8101044A02EB97
:103440008100211DFFF7A5FE70BD00002C000020AB
:103450006C2E012070B505462C46002D39D01D4933
:10346000E06A0968C96A884233D2A06900F0004066
:1034700028B918480068C06AC0F10500A061E16A77
:1034800001EB8101144A02EB81016069884201D19C
:10349000012000E00020C0B1201DFFF739FE0D48DB
:1034A0000068C06AE0620D49E06A0968884202D992
:1034B0000A49E06A0860E16A01EB8101064A02EB11
:1034C0008100211DFFF765FE03E002480068C06A25
:1034D000E06270BD140000206C2E01202C00002042
:1034E00010B504461CB9FCF7B3FE00BFFEE7034865
:1034F0000068206002480068606010BD3C00002049
:10350000280000201FB50020009001900290034683
:1035100082220FA10390104800F010FB0446012CFA
:1035200002D100F025FD0446012C0AD1FCF790FEE3
:1035300001200A49086000200949086000F062F88B
:1035400004E01CB9FCF784FE00BFFEE71FBD0000CD
:1035500049444C4500000000352900083000002097
:103560002800002002480068401C0149086070479C
:103570004800002010B51E48006818B101201D4900
:10358000086033E000201B4908600BE01A4800681F
:1035900018B9FCF75DFE00BFFEE717480068401E43
:1035A000154908601448006800EB8000134951F881
:1035B000200008B9012000E000200028E6D10E49D3
:1035C000096801EB81010D4A02EB810041684968FD
:1035D000416000F1080142688A4202D141684968AD
:1035E00041604168C968064A116000BF10BD000013
:1035F00048000020380000202C0000206C2E012004
:10360000140000201CB52648014609780191FF21CD
:10361000024611700146097800919DF8001001F0F2
:103620005001204A117007211F4A116009E01E490C
:103630000968491E1C4A11609DF800104906090ED0
:1036400000919DF8001001F080018029EFD016490B
:1036500009680902144A11601146098801F4E06101
:1036600011600F4A019911701048006840F4700011
:103670000E4908600846006840F070400860FFF797
:10368000C7FD00200A490860FCF7ACFD0948006846
:1036900040F0404007490860FCF796FD00201CBD43
:1036A00000E400E00C0000201000002020ED00E00D
:1036B0000800002034EF00E02DE9F04705460E46F3
:1036C00017464FF00009DDB15420FFF77FFB044699
:1036D000B4B105FB06F000F101084046FFF776FBA8
:1036E0002060206848B1E56326640121204600F08F
:1036F000BEF884F85070A14602E02046FFF77CFD3A
:10370000B9F1000F03D1FCF7A3FD00BFFEE7484667
:10371000BDE8F0872DE9FF4383B005460E461F46FE
:103720004FF000092C461CB9FCF792FD00BFFEE7E4
:103730000EB9206C08B9012000E0002018B9FCF790
:1037400087FD00BFFEE700F09BFA08B9059808B9AD
:10375000012000E0002018B9FCF77AFD00BFFEE769
:1037600000BFFFF723FDA06B90B3D4F80C80314667
:103770002046FFF771F8B7B9A06B401EA063206820
:1037800010B900F077FA6060206908B9012000E004
:103790000020B8B904F1100000F032FB012811D16B
:1037A000FFF774FD0EE0C4F80C80606A08B90120D0
:1037B00000E0002030B904F1240000F021FB08B142
:1037C000FFF764FDFFF702FD012007B0BDE8F083BD
:1037D000FFE7059818B9FFF7F9FC0020F5E7B9F104
:1037E000000F04D101A8FFF77BFE4FF00109FFF79E
:1037F000EDFCFFF7B7FEFFF7D9FC606C401C08B981
:1038000000206064A06C401C08B90020A064FFF791
:10381000DDFC05A901A800F057F908BB2046FFF719
:1038200023F9B8B1206830B9FFF7C0FC6068FFF732
:1038300011FEFFF7CBFC04F124000599FFF796FD7C
:103840002046FFF784FA00F01FFB002889D1FFF71C
:103850001DFD86E72046FFF77AFA00F015FB80E7AA
:103860002046FFF774FA00F00FFB0020ADE770B5BB
:1038700005460E462C461CB9FCF7EAFC00BFFEE7E5
:10388000FFF794FCD4E90F12206801FB020060608E
:103890000020A0632068A060E06B401E226C2168BD
:1038A00000FB0210E0604FF0FF306064A06476B966
:1038B000206908B9012000E0002080B904F110005F
:1038C00000F09EFA01280AD1FFF7E0FC07E004F1BE
:1038D0001000FFF734FC04F12400FFF730FCFFF781
:1038E00075FC012070BD2DE9FF4182B006460F46F0
:1038F0001D464FF0000834461CB9FCF7A9FC00BF78
:10390000FEE70FB9206C08B9012000E0002018B9CB
:10391000FCF79EFC00BFFEE7022D02D1E06B012800
:1039200001D1012000E0002018B9FCF791FC00BF94
:10393000FEE700F0A5F908B9049808B9012000E0F5
:10394000002018B9FCF784FC00BFFEE700BFFFF7BA
:103950002DFCA06BE16B884201D3022D18D12A46C1
:1039600039462046FEF78DFF606A08B9012000E065
:10397000002038B904F1240000F042FA012801D1F6
:10398000FFF784FCFFF722FC012006B0BDE8F081C0
:10399000049818B9FFF71AFC0020F6E7B8F1000FF9
:1039A00004D16846FFF79CFD4FF00108FFF70EFCBD
:1039B000FFF7D8FDFFF7FAFB606C401C08B9002048
:1039C0006064A06C401C08B90020A064FFF7FEFBF7
:1039D00004A9684600F078F8C0B92046FFF751F80E
:1039E00070B104F110000499FFF7C0FC2046FFF706
:1039F000AEF900F049FA0028A9D1FFF747FCA6E785
:103A00002046FFF7A4F900F03FFAA0E72046FFF7B1
:103A10009EF900F039FA0020B7E72DE9F047064695
:103A2000894617461D4634461CB9FCF711FC00BFF9
:103A3000FEE7B9F1000F01D1206C08B9012000E0C8
:103A4000002018B9FCF704FC00BFFEE7022D02D1EC
:103A5000E06B012801D1012000E0002018B9FCF73B
:103A6000F7FB00BFFEE7FFF7E3FBFCF7F1FB824645
:103A7000A06BE16B884201D3022D1CD12A46494636
:103A80002046FEF7FEFEA06C401C70B9606A08B9C3
:103A9000012000E0002058B904F1240000F0B0F942
:103AA00030B12FB10120386002E0A06C401CA0644E
:103AB0004FF0010801E04FF000085046FCF7CFFB43
:103AC0004046BDE8F08700002DE9F04104460D4670
:103AD0001CB9FCF7BDFB00BFFEE71DB9FCF7B8FB46
:103AE00000BFFEE7FFF762FB124807682868401C2A
:103AF00008B9002619E0104920680968884204D0F6
:103B00006068B84201D801260FE06068381A296859
:103B1000884209D228686168791A401A28602046CC
:103B2000FFF7DEFC002600E00126FFF74FFB3046E2
:103B3000BDE8F081280000203C0000202DE9FF4F67
:103B400081B0804616469A46DDE90E5BB8F1000F5B
:103B500003D1FCF77DFB00BFFEE7052D01D201205C
:103B600000E0002018B9FCF773FB00BFFEE7304609
:103B70001099FEF7E7FD0446002C5CD0701E216B07
:103B800001EB800929F0070909F0070008B90120B5
:103B900000E0002018B9FCF75BFB00BFFEE70096D1
:103BA0002A462046119B0299FEF7D2FE5246414614
:103BB0004846FFF747F92060BBF1000F01D0CBF872
:103BC0000040FFF7F3FA25480068401C23490860CD
:103BD0002348006840B9224804600846006801286C
:103BE0000CD1FEF7E1FE09E01E48006830B91C4820
:103BF0000068C06AA84201D8194804601A480068E1
:103C0000401C194908600846006820641749E06AAA
:103C10000968884202D91549E06A0860E16A01EB47
:103C20008101134A02EB8100211DFFF7B2FA01273F
:103C3000FFF7CCFA01E04FF0FF37012F09D1094817
:103C4000006830B106480068C06AA84201D2FFF798
:103C50001DFB384605B0BDE8F08F000024000020B1
:103C60001400002030000020400000202C00002024
:103C70006C2E0120014908687047000014000020E4
:103C80000549096809B9012005E00449096809B92D
:103C9000022000E000207047300000204800002093
:103CA00010B5FFF783FA03480468FFF78FFA204640
:103CB00010BD0000280000202DE9F0414FF0000861
:103CC00044480068002876D143480068401C4249B7
:103CD000086008460668DEB940480068006808B910
:103CE000012000E0002018B9FCF7B2FA00BFFEE79F
:103CF0003A4807683A480068384908603848076019
:103D000038480068401C37490860FEF789FF00BF4B
:103D10003548006886423BD300BF304800680068E1
:103D200008B9012000E0002020B14FF0FF302E49FB
:103D300008602CE029480068C068C4686568AE4225
:103D400002D22948056022E0201DFFF7E1F9A06AB0
:103D500018B104F11800FFF7DBF92449E06A09689B
:103D6000884202D92149E06A0860E16A01EB8101D9
:103D70001F4A02EB8100211DFFF70BFA1D49E06A83
:103D80000968C96A8842C8D34FF00108C5E700BF77
:103D900018480068C06A00EB8000154951F82000FF
:103DA000012801D94FF001081348006850B9FFF706
:103DB000C5F907E0FFE710480068401C0E4908609D
:103DC000FFF7BCF90D48006808B14FF00108404604
:103DD000BDE8F081480000202800002018000020E5
:103DE0001C0000203C000020440000202C0000208B
:103DF0006C2E012014000020340000203800002028
:103E000070B50646F068C4681CB9FCF721FA00BF1B
:103E1000FEE704F11800FFF77BF915480068A0B928
:103E2000201DFFF775F91349E06A0968884202D935
:103E30001049E06A0860E16A01EB81010E4A02EB79
:103E40008100211DFFF7A5F904E004F118010B48DA
:103E5000FFF79FF90A49E06A0968C96A884204D9EC
:103E6000012501200749086000E00025284670BDB3
:103E7000480000202C0000206C2E0120F82E01208C
:103E8000140000203800002070B50025304800687C
:103E900018B9FCF7DDF900BFFEE7FFF787F92C48FA
:103EA0000068401E2A4908600846006800284AD178
:103EB00028480068002846D023E02748C068C46826
:103EC00004F11800FFF724F9201DFFF721F9234919
:103ED000E06A0968884202D92049E06A0860E16A1C
:103EE00001EB81011E4A02EB8100211DFFF751F910
:103EF0001C49E06A0968C96A884202D301201A494C
:103F000008601548006808B9012000E0002000287A
:103F1000D3D01648006878B10AE0FFF7CDFE10B1A3
:103F200001201149086011480068401E0F490860CF
:103F30000E4800680028F0D10B480068012802D123
:103F40000125FFF7A3F9FFF741F9284670BD0000EE
:103F50004800002024000020F82E01202C00002022
:103F60006C2E0120140000203800002034000020B6
:103F70001FB50024FEF704FC0C48006868B100205F
:103F80000223CDE90030029003464FF4827208A16B
:103F900003900948FFF7D2FD04461CB9FCF758F915
:103FA00000BFFEE7204604B010BD00005400002012
:103FB000546D722053766300352D00082DE9FE43C1
:103FC00005460C4616461F46DDF828804FF00009CE
:103FD0001448006810B3009401960295062C15DA77
:103FE000FFF74EFE022808D10023424669460D48DD
:103FF0000068FFF778FC814610E000231A46694606
:1040000008480068FFF76FFC814607E000233A4646
:10401000694604480068FFF700FD81464846BDE850
:10402000FE83000054000020800000010002000414
:104030002000000020000000200000002000000000
:104040000100002000010000010000000400000049
:104050000001000001000020000100000200080033
:1040600000000D00080006002800170010000000E6
:1040700001000000010000000002000409000A0025
:104080000700070000000000000000000000000022
:104090000000000000000000000000000000000020
:1040A0000000000000000000000000000000000010
:1040B000000000000000800180018001800180017B
:1040C00080018001800180018001800180018001E8
:1040D00000000000800180010000000000000000DE
:1040E0000000000000000000CC00CC00CC00CC00A0
:1040F000CC00CC0000000000000000000000000028
:1041000000000000000000000000000000000000AF
:10411000000000000000000000000000000000009F
:10412000600C600C600C30063006FE1FFE1F30066F
:1041300038071803FE1FFE1F180318038C018C019B
:104140008C01000000008000E003F80F9C0E8C1C26
:104150008C188C009800F801E007800E801C8C18E9
:104160008C189C18B80CF00FE00380008000000051
:10417000000000000000000000000E181B0C110CD5
:1041800011061106110311039B018E01C038C06C8A
:1041900060446044304430441844186C0C380000CB
:1041A000000000000000E001F003380718061806C0
:1041B0003003F001F000F8009C310E33061E061C9F
:1041C000061C063FFC73F021000000000000000008
:1041D00000000000000000000C000C000C000C00AF
:1041E0000C000C00000000000000000000000000B7
:1041F00000000000000000000000000000000000BF
:10420000000000000000000200038001C000C000A8
:1042100060006000300030003000300030003000BE
:104220003000300060006000C000C000800100036A
:1042300000020000000020006000C000800180013A
:104240000003000300060006000600060006000644
:10425000000600060003000380018001C00060002A
:10426000200000000000000000000000000000002E
:10427000C000C000D806F807E0013003380700008E
:10428000000000000000000000000000000000002E
:10429000000000000000000000000000000000001E
:1042A00080018001800180018001FC3FFC3F800192
:1042B00080018001800180010000000000000000FA
:1042C00000000000000000000000000000000000EE
:1042D00000000000000000000000000000000000DE
:1042E000000000000000800180010001000180004A
:1042F00000000000000000000000000000000000BE
:10430000000000000000000000000000E007E007DF
:10431000000000000000000000000000000000009D
:10432000000000000000000000000000000000008D
:10433000000000000000000000000000000000007D
:10434000000000000000C000C000000000000000ED
:10435000000000000000000C000C00060006000633
:104360000003000300038003800180018001C0007E
:10437000C000C000600060000000000000000000FD
:10438000000000000000E003F007380E180C0C18C5
:104390000C180C180C180C180C180C180C180C18FD
:1043A000180C380EF007E0030000000000000000C9
:1043B00000000000000000018001C001F001980130
:1043C00088018001800180018001800180018001DD
:1043D00080018001800180010000000000000000D9
:1043E000000000000000E003F80F180C0C180C1877
:1043F00000180018000C000600038001C0006000D7
:1044000030001800FC1FFC1F00000000000000002E
:10441000000000000000E001F807180E0C0C0C0C66
:10442000000C0006C003C007000C001800180C1890
:104430000C18180CF807E003000000000000000052
:10444000000000000000000C000E000F000F800DA7
:10445000C00C600C600C300C180C0C0CFC3FFC3FCA
:10446000000C000C000C000C00000000000000001C
:10447000000000000000F80FF80F180018000C00F2
:10448000EC03FC071C0E001C0018001800180C1888
:104490001C0C180EF807E0030000000000000000EC
:1044A000000000000000C007F00F381C18181800AA
:1044B0000C00CC03EC0F3C0E1C1C0C180C180C1838
:1044C000181C380EF007E003000000000000000098
:1044D000000000000000FC1FFC1F000C000600068E
:1044E000000380038001C001C000E00060006000A4
:1044F00070003000300030000000000000000000BC
:10450000000000000000E003F007380E180C180C43
:10451000180C3806F007F007180C0C180C180C18BB
:104520000C18380CF80FE003000000000000000039
:10453000000000000000E003F007380E1C0C0C180F
:104540000C180C181C1C381EF81BE0190018000C65
:10455000000C1C0EF807F001000000000000000035
:10456000000000000000000000000000000000004B
:104570008001800100000000000000000000000039
:104580000000000080018001000000000000000029
:10459000000000000000000000000000000000001B
:1045A0008001800100000000000000000000000009
:1045B0000000000080018001000100018000000077
:1045C00000000000000000000000000000000000EB
:1045D000000000000010001C800FE003F80018002D
:1045E000F800E003800F001C001000000000000035
:1045F00000000000000000000000000000000000BB
:1046000000000000F81F000000000000F81F00007C
:10461000000000000000000000000000000000009A
:10462000000000000000000000000000000000008A
:104630000000000008003800F001C007001F00184B
:10464000001FC007F0013800080000000000000053
:10465000000000000000E003F80F180C0C180C1804
:104660000018000C000600038001C000C000C0005C
:1046700000000000C000C0000000000000000000BA
:104680000000000000000000E00718180420C22904
:10469000224A114409440944094409221113E20C35
:1046A000024004201818E00700000000000000008D
:1046B00000000000000080038003C006C006C006A2
:1046C000600C600C301830183018F83FF83F1C7040
:1046D0000C600C6006C006C0000000000000000076
:1046E000000000000000FC03FC0F0C0C0C180C1860
:1046F0000C180C0CFC07FC0F0C180C300C300C3098
:104700000C300C18FC1FFC0700000000000000002B
:10471000000000000000C007F01F38381C300C708B
:104720000660060006000600060006000600066099
:104730000C701C30F01FE0070000000000000000BB
:10474000000000000000FE03FE0F060E061806180B
:1047500006300630063006300630063006300618C1
:104760000618060EFE0FFE03000000000000000009
:10477000000000000000FC3FFC3F0C000C000C009F
:104780000C000C00FC1FFC1F0C000C000C000C00AB
:104790000C000C00FC3FFC3F00000000000000008B
:1047A000000000000000F83FF83F18001800180053
:1047B00018001800F81FF81F18001800180018003B
:1047C0001800180018001800000000000000000089
:1047D000000000000000E00FF83F3C780E6006E0AB
:1047E00007C00300030003FE03FE03C007C006C0AA
:1047F0000EC03CF0F83FE00F000000000000000099
:104800000000000000000C300C300C300C300C307C
:104810000C300C30FC3FFC3F0C300C300C300C30BA
:104820000C300C300C300C30000000000000000098
:1048300000000000000080018001800180018001F3
:104840008001800180018001800180018001800160
:104850008001800180018001000000000000000054
:10486000000000000000000600060006000600062A
:1048700000060006000600060006000600061806F0
:1048800018063807F003E0010000000000000000F7
:1048900000000000000006300618060C060606039D
:1048A0008601C60066007600DE008E01060306065D
:1048B000060C06180630066000000000000000002C
:1048C0000000000000001800180018001800180070
:1048D0001800180018001800180018001800180018
:1048E00018001800F81FF81F00000000000000006A
:1048F0000000000000000EE01EF01EF01EF036D892
:1049000036D836D836D866CC66CC66CCC6C6C6C6CF
:10491000C6C6C6C686C386C30000000000000000ED
:104920000000000000000C301C303C303C306C308B
:104930006C30CC30CC308C310C330C330C360C3624
:104940000C3C0C3C0C380C30000000000000000057
:10495000000000000000E007F81F1C380E70066021
:1049600003C003C003C003C003C003C003C006608C
:104970000E701C38F81FE007000000000000000067
:10498000000000000000FC0FFC1F0C380C300C3045
:104990000C300C300C18FC1FFC070C000C000C0039
:1049A0000C000C000C000C000000000000000000D7
:1049B000000000000000E007F81F1C380E700660C1
:1049C00003E003C003C003C003C003C007E00663E5
:1049D0000E3F1C3CF83FE0F700C000000000000064
:1049E000000000000000FE0FFE1F063806300630F3
:1049F00006300638FE1FFE0706030606060C0618DC
:104A000006180630063006600000000000000000B6
:104A1000000000000000E003F80F1C0C0C180C183C
:104A20000C001C00F803E00F001E003806300630B2
:104A30000E301C1CF80FE007000000000000000012
:104A4000000000000000FE7FFE7F800180018001E9
:104A5000800180018001800180018001800180014E
:104A60008001800180018001000000000000000042
:104A70000000000000000C300C300C300C300C300A
:104A80000C300C300C300C300C300C300C300C3046
:104A90000C301818F81FE0070000000000000000AC
:104AA00000000000000003600630063006300C18DD
:104AB0000C180C18180C180C380E3006300670073D
:104AC00060036003C001C00100000000000000009E
:104AD0000000000000000360C361C361C36166336E
:104AE000663366336633663366336C1B6C1B6C1B34
:104AF0002C1A3C1E380E380E00000000000000008A
:104B00000000000000000FE00C7018303018700C2E
:104B1000600EC00780038003C003E006700C301CE9
:104B200018180C300E6007E00000000000000000C4
:104B300000000000000003C006600C301C3838186C
:104B4000300C6006E007C003800180018001800115
:104B50008001800180018001000000000000000051
:104B6000000000000000FC7FFC7F006000300018A7
:104B7000000C000600038001C00060003000180037
:104B80000C000600FE7FFE7F000000000000000019
:104B9000000000000000E003E0036000600060002F
:104BA0006000600060006000600060006000600005
:104BB0006000600060006000600060006000E00372
:104BC000E003000000003000300060006000600082
:104BD000C000C000C000C00180018001800100034E
:104BE00000030003000600060000000000000000B3
:104BF000000000000000E003E003000300030003E6
:104C0000000300030003000300030003000300038C
:104C10000003000300030003000300030003E0039C
:104C2000E003000000000000C001C0016003600359
:104C3000600330063006180C180C0000000000005D
:104C40000000000000000000000000000000000064
:104C50000000000000000000000000000000000054
:104C60000000000000000000000000000000000044
:104C7000000000000000FFFFFFFF00000000000038
:104C80000000000000000C000C000C000C000C00E8
:104C90000C00000000000000000000000000000008
:104CA0000000000000000000000000000000000004
:104CB00000000000000000000000000000000000F4
:104CC000F003F8071C0C0C0C000FF00FF80C0C0C88
:104CD0000C0C1C0FF80FF018000000000000000082
:104CE000000000000000180018001800180018004C
:104CF000D803F80F380C181818181818181818189E
:104D00001818380CF80FD80300000000000000004D
:104D10000000000000000000000000000000000093
:104D2000C003F007300E180C180018001800180007
:104D3000180C300EF007C003000000000000000057
:104D400000000000000000180018001800180018EB
:104D5000C01BF01F301C181818181818181818182D
:104D60001818301CF01FC01B0000000000000000DD
:104D70000000000000000000000000000000000033
:104D8000C003F00F300C1818F81FF81F1800180097
:104D90003818301CF00FC0070000000000000000B1
:104DA000000000000000800FC00FC000C000C00065
:104DB000F007F007C000C000C000C000C000C00085
:104DC000C000C000C000C0000000000000000000E3
:104DD00000000000000000000000000000000000D3
:104DE000E00DF80F180E0C0C0C0C0C0C0C0C0C0C31
:104DF0000C0C180EF80FE00D000C0C0C1C06F8073C
:104E0000F001000000001800180018001800180039
:104E1000D807F80F381C1818181818181818181868
:104E200018181818181818180000000000000000C2
:104E3000000000000000C000C000000000000000F2
:104E4000C000C000C000C000C000C000C000C00062
:104E5000C000C000C000C000000000000000000052
:104E6000000000000000C000C000000000000000C2
:104E7000C000C000C000C000C000C000C000C00032
:104E8000C000C000C000C000C000C000C000F800EA
:104E90007800000000000C000C000C000C000C005E
:104EA0000C0C0C060C038C01CC006C00FC009C016B
:104EB0008C030C030C060C0C00000000000000002A
:104EC000000000000000C000C000C000C000C00022
:104ED000C000C000C000C000C000C000C000C000D2
:104EE000C000C000C000C0000000000000000000C2
:104EF00000000000000000000000000000000000B2
:104F00007C3CFF7EC7E383C183C183C183C183C16E
:104F100083C183C183C183C1000000000000000081
:104F20000000000000000000000000000000000081
:104F30009807F80F381C1818181818181818181887
:104F400018181818181818180000000000000000A1
:104F50000000000000000000000000000000000051
:104F6000C003F00F300C1818181818181818181853
:104F70001818300CF00FC003000000000000000003
:104F80000000000000000000000000000000000021
:104F9000D803F80F380C18181818181818181818FB
:104FA0001818380CF80FD80318001800180018004B
:104FB00018000000000000000000000000000000D9
:104FC000C01BF01F301C18181818181818181818BB
:104FD0001818301CF01FC01B00180018001800180B
:104FE00000180000000000000000000000000000A9
:104FF000B007F003700030003000300030003000A7
:1050000030003000300030000000000000000000E0
:105010000000000000000000000000000000000090
:10502000E003F003380E180C3800F003C007000C42
:10503000180C380EF007E00300000000000000002C
:1050400000000000000000008000C000C000C000A0
:10505000F007F007C000C000C000C000C000C000E2
:10506000C000C000C0078007000000000000000072
:105070000000000000000000000000000000000030
:1050800018181818181818181818181818181818A0
:105090001818381CF01FE019000000000000000084
:1050A0000000000000000000000000000000000000
:1050B0000C18180C180C180C30063006300660035B
:1050C00060036003C001C001000000000000000098
:1050D00000000000000000000000000000000000D0
:1050E000C141C141C361636363636363363636366E
:1050F00036361C1C1C1C1C1C00000000000000009C
:10510000000000000000000000000000000000009F
:105110001C38381C300C60066003600360036003B9
:105120006006300C381C1C38000000000000000035
:10513000000000000000000000000000000000006F
:105140001830301830187018600C600CE00CC00675
:10515000C00680038003800380018001C001F0004D
:1051600070000000000000000000000000000000CF
:10517000FC1FFC1F000C000600038001C000600043
:1051800030001800FC1FFC1F0000000000000000A1
:1051900000000000000000038001C000C000C0004B
:1051A000C000C000C000600060003000600040002F
:1051B000C000C000C000C000C000C00080010003EB
:1051C000000000000000800180018001800180015A
:1051D00080018001800180018001800180018001C7
:1051E00080018001800180018001800180018001B7
:1051F0008001000000006000C000C001800180014B
:10520000800180018001000300030006000300010B
:10521000800180018001800180018001C000600068
:10522000000000000000000000000000000000007E
:1052300000000000F010F81F080F00000000000040
:10524000000000000000000000000000000000005E
:10525000000000000000000000000000000000004E
:10526000000000000000000000000000000000201E
:10527000002000200020002000200020000000204E
:10528000000000000000005000500050000000002E
:105290000000000000000000000000000000000905
:1052A00000090012007F0012007F00120024002479
:1052B000000000000010003800540050005000387A
:1052C000001400540054003800100000000080302A
:1052D00000490049004AC032200520092009C010B9
:1052E000000000000000000C001200120014001862
:1052F000002500230023801D000000000000004066
:10530000004000400000000000000000000000001D
:105310000000000000000008001000100020002025
:10532000002000200020002000100010000000409D
:1053300000200020001000100010001000100010CD
:10534000002000200000002000700020005000001D
:10535000000000000000000000000000000000004D
:10536000000000080008007F00080008000000009E
:10537000000000000000000000000000000000002D
:10538000000000000000002000200040000000009D
:10539000000000000000000000700000000000009D
:1053A00000000000000000000000000000000000FD
:1053B00000000000000000200000000000000010BD
:1053C00000100010002000200020002000400040BD
:1053D00000000000000000100028004400440044C9
:1053E00000440044002800100000000000000010ED
:1053F00000300050001000100010001000100010CD
:1054000000000000000000300048004400040008D4
:10541000001000200040007C000000000000003070
:105420000048000400080010000800440048003054
:1054300000000000000000080018001800280028E4
:105440000048007C00080008000000000000003C4C
:105450000020004000700048000400440048003074
:105460000000000000000018002400400050006808
:105470000044004400280010000000000000007CF0
:105480000004000800100010001000200020002080
:105490000000000000000010002800440028001058
:1054A0000028004400280010000000000000001048
:1054B000002800440044002C001400040048003080
:1054C00000000000000000000000002000000000BC
:1054D00000000000000000200000000000000000AC
:1054E000000000200000000000000000000000207C
:1054F00000200040000000000004000800300040D0
:10550000003000080004000000000000000000005F
:105510000000007C00000000007C00000000000093
:1055200000000000000000000040002000180004FF
:1055300000180020004000000000000000000038BB
:105540000064004400040008001000100000001077
:10555000000000000000800F4010A02EA05120513C
:10556000205120512053C04D202040100000000841
:105570000014001400140022003E002200410041EB
:10558000000000000000003C002200220022003C3D
:10559000002200220022003C000000000000000E5B
:1055A0000011002100200020002000210011000E29
:1055B000000000000000003C00220021002100212A
:1055C000002100210022003C000000000000003EFD
:1055D000002000200020003E002000200020003E8F
:1055E000000000000000003E002000200020003CE1
:1055F0000020002000200020000000000000000E1D
:105600000011002100200027002100210011000EC0
:105610000000000000000021002100210021003FC7
:1056200000210021002100210000000000000020D6
:10563000002000200020002000200020002000206A
:105640000000000000000008000800080008000832
:105650000008004800480030000000000000002260
:1056600000240028002800380028002400240022FC
:10567000000000000000002000200020002000208A
:10568000002000200020003E0000000000008020DC
:10569000803180318031802A802A802A802A8024AB
:1056A0000000000000000021003100310029002925
:1056B0000025002300230021000000000000000C52
:1056C0000012002100210021002100210012000C05
:1056D000000000000000003C002200220022003CEC
:1056E0000020002000200020000000000000000C2E
:1056F0000012002100210021002100210016000DD0
:10570000000100000000003E002100210021003EB9
:105710000024002200218020000000000000001C66
:10572000002200220020001C000200220022001C97
:10573000000000000000003E00080008000800080B
:105740000008000800080008000000000000002118
:105750000021002100210021002100210012000C65
:105760000000000000000041004100220022002251
:105770000014001400140008000000000000404461
:10578000404A402A802A802A802A802A802A0011C2
:105790000000000000000041002200140014000876
:1057A000001400140022004100000000000000412D
:1057B0000022002200140008000800080008000869
:1057C000000000000000007E00020004000800103D
:1057D000001000200040007E0000000000000030AB
:1057E00000200020002000200020002000200020B9
:1057F0000020002000000040004000200020002089
:1058000000200020001000100000000000000060D8
:105810000020002000200020002000200020002088
:10582000002000200000001000280028002800446C
:105830000000000000000000000000000000000068
:105840000000000000000000000000000000000058
:105850000000007E0040002000000000000000006A
:105860000000000000000000000000000000000038
:105870000000003800440004003C00440044003CA8
:105880000000000000000040004000580064004498
:1058900000440044006400580000000000000000C4
:1058A0000000003000480040004000400048003048
:1058B000000000000000000400040034004C00441C
:1058C00000440044004C00340000000000000000D0
:1058D0000000003800440044007C004000440038D0
:1058E0000000000000000060004000E000400040B8
:1058F00000400040004000400000000000000000A8
:1059000000000034004C004400440044004C0034CB
:1059100000040044000000400040005800640044BF
:105920000044004400440044000000000000004027
:1059300000000040004000400040004000400040A7
:105940000000000000000040000000400040004057
:105950000040004000400040004000400000004087
:1059600000400048005000600050005000480048CF
:1059700000000000000000400040004000400040E7
:105980000040004000400040000000000000000017
:1059900000000052006D00490049004900490049DB
:1059A00000000000000000000000005800640044F7
:1059B00000440044004400440000000000000000D7
:1059C0000000003800440044004400440044003813
:1059D00000000000000000000000005800640044C7
:1059E00000440044006400580040004000000000F3
:1059F00000000034004C004400440044004C0034DB
:105A0000000400040000000000000050006000409E
:105A10000040004000400040000000000000000086
:105A2000000000300048004000300008004800300E
:105A30000000000000000040004000E00040004086
:105A40000040004000400060000000000000000036
:105A5000000000440044004400440044004C003472
:105A60000000000000000000000000440044002886
:105A7000002800280028001000000000000000009E
:105A8000000000490049005500550055005500220E
:105A90000000000000000000000000440028002872
:105AA0000010002800280044000000000000000052
:105AB00000000044004400280028002800100010C6
:105AC0000010001000000000000000780008001026
:105AD00000200020004000780000000000000010BE
